{
  "contractName": "Casino",
  "abi": [
    {
      "constant": true,
      "inputs": [],
      "name": "state",
      "outputs": [
        {
          "name": "",
          "type": "uint8"
        }
      ],
      "payable": false,
      "stateMutability": "view",
      "type": "function"
    },
    {
      "inputs": [],
      "payable": false,
      "stateMutability": "nonpayable",
      "type": "constructor"
    },
    {
      "constant": false,
      "inputs": [
        {
          "name": "value",
          "type": "uint256"
        }
      ],
      "name": "startGame",
      "outputs": [],
      "payable": true,
      "stateMutability": "payable",
      "type": "function"
    },
    {
      "constant": false,
      "inputs": [
        {
          "name": "value",
          "type": "uint256"
        }
      ],
      "name": "betIn",
      "outputs": [],
      "payable": true,
      "stateMutability": "payable",
      "type": "function"
    },
    {
      "constant": false,
      "inputs": [],
      "name": "endGame",
      "outputs": [],
      "payable": false,
      "stateMutability": "nonpayable",
      "type": "function"
    },
    {
      "constant": false,
      "inputs": [
        {
          "name": "_myid",
          "type": "bytes32"
        },
        {
          "name": "_result",
          "type": "string"
        }
      ],
      "name": "__callback",
      "outputs": [],
      "payable": false,
      "stateMutability": "nonpayable",
      "type": "function"
    },
    {
      "constant": false,
      "inputs": [
        {
          "name": "_queryId",
          "type": "bytes32"
        },
        {
          "name": "_result",
          "type": "string"
        },
        {
          "name": "_proof",
          "type": "bytes"
        }
      ],
      "name": "__callback",
      "outputs": [],
      "payable": false,
      "stateMutability": "nonpayable",
      "type": "function"
    }
  ],
  "bytecode": "0x608060405234801561001057600080fd5b50613d18806100206000396000f3fe608060405260043610610072576000357c01000000000000000000000000000000000000000000000000000000009004806327dc297e1461007757806338bbfa50146101495780636cbc2ded146102b2578063c19d93fb146102c9578063c8b42bfb14610302578063e5ed1d5914610330575b600080fd5b34801561008357600080fd5b506101476004803603604081101561009a57600080fd5b8101908080359060200190929190803590602001906401000000008111156100c157600080fd5b8201836020820111156100d357600080fd5b803590602001918460018302840111640100000000831117156100f557600080fd5b91908080601f016020809104026020016040519081016040528093929190818152602001838380828437600081840152601f19601f82011690508083019250505050505050919291929050505061035e565b005b34801561015557600080fd5b506102b06004803603606081101561016c57600080fd5b81019080803590602001909291908035906020019064010000000081111561019357600080fd5b8201836020820111156101a557600080fd5b803590602001918460018302840111640100000000831117156101c757600080fd5b91908080601f016020809104026020016040519081016040528093929190818152602001838380828437600081840152601f19601f8201169050808301925050505050505091929192908035906020019064010000000081111561022a57600080fd5b82018360208201111561023c57600080fd5b8035906020019184600183028401116401000000008311171561025e57600080fd5b91908080601f016020809104026020016040519081016040528093929190818152602001838380828437600081840152601f19601f8201169050808301925050505050505091929192905050506103a1565b005b3480156102be57600080fd5b506102c7610497565b005b3480156102d557600080fd5b506102de610551565b604051808260028111156102ee57fe5b60ff16815260200191505060405180910390f35b61032e6004803603602081101561031857600080fd5b8101908080359060200190929190505050610564565b005b61035c6004803603602081101561034657600080fd5b810190808035906020019092919050505061062a565b005b61039d828260006040519080825280601f01601f1916602001820160405280156103975781602001600182028038833980820191505090505b506103a1565b5050565b6103a9610728565b73ffffffffffffffffffffffffffffffffffffffff163373ffffffffffffffffffffffffffffffffffffffff16146103e057600080fd5b60006103ed848484610a99565b60ff16146103fa57600080fd5b60006008805490509050600081846040516020018082805190602001908083835b6020831061043e578051825260208201915060208101905060208303925061041b565b6001836020036101000a03801982511681845116808217855250505050505090500191505060405160208183030381529060405280519060200120600190048161048457fe5b06905061049081610ca6565b5050505050565b600160028111156104a457fe5b600560009054906101000a900460ff1660028111156104bf57fe5b146104c957600080fd5b600760009054906101000a900473ffffffffffffffffffffffffffffffffffffffff1673ffffffffffffffffffffffffffffffffffffffff163373ffffffffffffffffffffffffffffffffffffffff161461052357600080fd5b61052b610d6b565b6002600560006101000a81548160ff0219169083600281111561054a57fe5b0217905550565b600560009054906101000a900460ff1681565b6001600281111561057157fe5b600560009054906101000a900460ff16600281111561058c57fe5b1461059657600080fd5b8060065481146105a557600080fd5b6105ba82600954610d9390919063ffffffff16565b60098190555060083390806001815401808255809150509060018203906000526020600020016000909192909190916101000a81548173ffffffffffffffffffffffffffffffffffffffff021916908373ffffffffffffffffffffffffffffffffffffffff160217905550505050565b6000600281111561063757fe5b600560009054906101000a900460ff16600281111561065257fe5b1461065c57600080fd5b33600760006101000a81548173ffffffffffffffffffffffffffffffffffffffff021916908373ffffffffffffffffffffffffffffffffffffffff160217905550806006819055506106b981600954610d9390919063ffffffff16565b60098190555060083390806001815401808255809150509060018203906000526020600020016000909192909190916101000a81548173ffffffffffffffffffffffffffffffffffffffff021916908373ffffffffffffffffffffffffffffffffffffffff1602179055505050565b60008073ffffffffffffffffffffffffffffffffffffffff16600160009054906101000a900473ffffffffffffffffffffffffffffffffffffffff1673ffffffffffffffffffffffffffffffffffffffff1614806107b0575060006107ae600160009054906101000a900473ffffffffffffffffffffffffffffffffffffffff16610db2565b145b156107c1576107bf6000610dbd565b505b600160009054906101000a900473ffffffffffffffffffffffffffffffffffffffff1673ffffffffffffffffffffffffffffffffffffffff166338cc48316040518163ffffffff167c0100000000000000000000000000000000000000000000000000000000028152600401602060405180830381600087803b15801561084757600080fd5b505af115801561085b573d6000803e3d6000fd5b505050506040513d602081101561087157600080fd5b810190808051906020019092919050505073ffffffffffffffffffffffffffffffffffffffff166000809054906101000a900473ffffffffffffffffffffffffffffffffffffffff1673ffffffffffffffffffffffffffffffffffffffff16146109d657600160009054906101000a900473ffffffffffffffffffffffffffffffffffffffff1673ffffffffffffffffffffffffffffffffffffffff166338cc48316040518163ffffffff167c0100000000000000000000000000000000000000000000000000000000028152600401602060405180830381600087803b15801561095b57600080fd5b505af115801561096f573d6000803e3d6000fd5b505050506040513d602081101561098557600080fd5b81019080805190602001909291905050506000806101000a81548173ffffffffffffffffffffffffffffffffffffffff021916908373ffffffffffffffffffffffffffffffffffffffff1602179055505b6000809054906101000a900473ffffffffffffffffffffffffffffffffffffffff1673ffffffffffffffffffffffffffffffffffffffff1663c281d19e6040518163ffffffff167c010000000000000000000000000000000000000000000000000000000002815260040160206040518083038186803b158015610a5957600080fd5b505afa158015610a6d573d6000803e3d6000fd5b505050506040513d6020811015610a8357600080fd5b8101908080519060200190929190505050905090565b60007f4c0000000000000000000000000000000000000000000000000000000000000082600081518110610ac957fe5b60200101517f010000000000000000000000000000000000000000000000000000000000000090047f0100000000000000000000000000000000000000000000000000000000000000027effffffffffffffffffffffffffffffffffffffffffffffffffffffffffffff1916141580610bda57507f500000000000000000000000000000000000000000000000000000000000000082600181518110610b6b57fe5b60200101517f010000000000000000000000000000000000000000000000000000000000000090047f0100000000000000000000000000000000000000000000000000000000000000027effffffffffffffffffffffffffffffffffffffffffffffffffffffffffffff191614155b80610c655750600160ff1682600281518110610bf257fe5b60200101517f010000000000000000000000000000000000000000000000000000000000000090047f0100000000000000000000000000000000000000000000000000000000000000027f0100000000000000000000000000000000000000000000000000000000000000900460ff1614155b15610c735760019050610c9f565b6000610c88838686610c83610dce565b610e70565b905080610c99576002915050610c9f565b60009150505b9392505050565b600280811115610cb257fe5b600560009054906101000a900460ff166002811115610ccd57fe5b14610cd757600080fd5b6008805490508110610ce857600080fd5b600060088281548110610cf757fe5b9060005260206000200160009054906101000a900473ffffffffffffffffffffffffffffffffffffffff16905060008090505b600880549050811015610d4257806001019050610d2a565b506000600560006101000a81548160ff02191690836002811115610d6257fe5b02179055505050565b60006004905060008090506000621e848090506000610d8b838584611638565b905050505050565b600080828401905083811015610da857600080fd5b8091505092915050565b6000813b9050919050565b6000610dc7611bf2565b9050919050565b606060028054600181600116156101000203166002900480601f016020809104026020016040519081016040528092919081815260200182805460018160011615610100020316600290048015610e665780601f10610e3b57610100808354040283529160200191610e66565b820191906000526020600020905b815481529060010190602001808311610e4957829003601f168201915b5050505050905090565b6000806020600287604581518110610e8457fe5b60200101517f010000000000000000000000000000000000000000000000000000000000000090047f0100000000000000000000000000000000000000000000000000000000000000027f0100000000000000000000000000000000000000000000000000000000000000900460ff1601604401019050606060206040519080825280601f01601f191660200182016040528015610f315781602001600182028038833980820191505090505b509050610f4387836020846000612149565b50600284876040516020018083805190602001908083835b60208310610f7e5780518252602082019150602081019050602083039250610f5b565b6001836020036101000a038019825116818451168082178552505050505050905001828152602001925050506040516020818303038152906040526040518082805190602001908083835b60208310610fec5780518252602082019150602081019050602083039250610fc9565b6001836020036101000a038019825116818451168082178552505050505050905001915050602060405180830381855afa15801561102e573d6000803e3d6000fd5b5050506040513d602081101561104357600080fd5b8101908080519060200190929190505050604051602001808281526020019150506040516020818303038152906040528051906020012081805190602001201461109257600092505050611630565b606060028860016049860101815181106110a857fe5b60200101517f010000000000000000000000000000000000000000000000000000000000000090047f0100000000000000000000000000000000000000000000000000000000000000027f0100000000000000000000000000000000000000000000000000000000000000900460ff16016040519080825280601f01601f19166020018201604052801561114b5781602001600182028038833980820191505090505b50905061116088604985018351846000612149565b5061128a6002826040518082805190602001908083835b6020831061119a5780518252602082019150602081019050602083039250611177565b6001836020036101000a038019825116818451168082178552505050505050905001915050602060405180830381855afa1580156111dc573d6000803e3d6000fd5b5050506040513d60208110156111f157600080fd5b8101908080519060200190929190505050878a600860208801018151811061121557fe5b60200101517f010000000000000000000000000000000000000000000000000000000000000090047f0100000000000000000000000000000000000000000000000000000000000000027f0100000000000000000000000000000000000000000000000000000000000000900460ff166121a8565b61129a5760009350505050611630565b606060296040519080825280601f01601f1916602001820160405280156112d05781602001600182028038833980820191505090505b5090506112e589602086016029846000612149565b506060604080519080825280601f01601f19166020018201604052801561131b5781602001600182028038833980820191505090505b50905060006041845160296020890101010190506113418b604083036040856000612149565b5060006002836040518082805190602001908083835b6020831061137a5780518252602082019150602081019050602083039250611357565b6001836020036101000a038019825116818451168082178552505050505050905001915050602060405180830381855afa1580156113bc573d6000803e3d6000fd5b5050506040513d60208110156113d157600080fd5b8101908080519060200190929190505050905083816040516020018083805190602001908083835b6020831061141c57805182526020820191506020810190506020830392506113f9565b6001836020036101000a0380198251168184511680821785525050505050509050018281526020019250505060405160208183030381529060405280519060200120600360008d815260200190815260200160002054141561149457600360008c8152602001908152602001600020600090556114a4565b6000975050505050505050611630565b606060496040519080825280601f01601f1916602001820160405280156114da5781602001600182028038833980820191505090505b5090506114ec8d896049846000612149565b506115956002826040518082805190602001908083835b602083106115265780518252602082019150602081019050602083039250611503565b6001836020036101000a038019825116818451168082178552505050505050905001915050602060405180830381855afa158015611568573d6000803e3d6000fd5b5050506040513d602081101561157d57600080fd5b810190808051906020019092919050505087866122b6565b6115aa57600098505050505050505050611630565b6004600083815260200190815260200160002060009054906101000a900460ff16611604576115d98d84612534565b6004600084815260200190815260200160002060006101000a81548160ff0219169083151502179055505b6004600083815260200190815260200160002060009054906101000a900460ff16985050505050505050505b949350505050565b6000808311801561164a575060208311155b61165357600080fd5b600a84029350606060016040519080825280601f01601f19166020018201604052801561168f5781602001600182028038833980820191505090505b509050837f010000000000000000000000000000000000000000000000000000000000000002816000815181106116c257fe5b60200101907effffffffffffffffffffffffffffffffffffffffffffffffffffffffffffff1916908160001a905350606060206040519080825280601f01601f1916602001820160405280156117275781602001600182028038833980820191505090505b509050606060206040519080825280601f01601f1916602001820160405280156117605781602001600182028038833980820191505090505b509050600061176d612a48565b905060208352424118600143034018602084015260208252806020830152606060206040519080825280601f01601f1916602001820160405280156117c15781602001600182028038833980820191505090505b509050886020820152606060086040519080825280601f01601f1916602001820160405280156118005781602001600182028038833980820191505090505b5090506118138260186008846000612149565b5061181c613bc6565b604051806080016040528087815260200188815260200186815260200184815250905060006118816040518060400160405280600681526020017f72616e646f6d0000000000000000000000000000000000000000000000000000815250838c612db9565b9050606060086040519080825280601f01601f1916602001820160405280156118b95781602001600182028038833980820191505090505b50905060208401517f0100000000000000000000000000000000000000000000000000000000000000810460278301537e01000000000000000000000000000000000000000000000000000000000000810460268301537d010000000000000000000000000000000000000000000000000000000000810460258301537c0100000000000000000000000000000000000000000000000000000000810460248301537b01000000000000000000000000000000000000000000000000000000810460238301537a010000000000000000000000000000000000000000000000000000810460228301537901000000000000000000000000000000000000000000000000008104602183015378010000000000000000000000000000000000000000000000008104602083015350611bdf8282856001600481106119f857fe5b6020020151600287600060048110611a0c57fe5b60200201516040518082805190602001908083835b60208310611a445780518252602082019150602081019050602083039250611a21565b6001836020036101000a038019825116818451168082178552505050505050905001915050602060405180830381855afa158015611a86573d6000803e3d6000fd5b5050506040513d6020811015611a9b57600080fd5b810190808051906020019092919050505087600260048110611ab957fe5b60200201516040516020018085805190602001908083835b60208310611af45780518252602082019150602081019050602083039250611ad1565b6001836020036101000a03801982511681845116808217855250505050505090500184805190602001908083835b60208310611b455780518252602082019150602081019050602083039250611b22565b6001836020036101000a03801982511681845116808217855250505050505090500183815260200182805190602001908083835b60208310611b9c5780518252602082019150602081019050602083039250611b79565b6001836020036101000a0380198251168184511680821785525050505050509050019450505050506040516020818303038152906040528051906020012061315e565b8199505050505050505050509392505050565b600080611c12731d3b2638a7cc9f2cb3d298a3da7a90b67e5506ed610db2565b1115611cb457731d3b2638a7cc9f2cb3d298a3da7a90b67e5506ed600160006101000a81548173ffffffffffffffffffffffffffffffffffffffff021916908373ffffffffffffffffffffffffffffffffffffffff160217905550611cab6040518060400160405280600b81526020017f6574685f6d61696e6e657400000000000000000000000000000000000000000081525061317a565b60019050612146565b6000611cd373c03a2615d5efaf5f49f60b7bb6583eaec212fdf1610db2565b1115611d755773c03a2615d5efaf5f49f60b7bb6583eaec212fdf1600160006101000a81548173ffffffffffffffffffffffffffffffffffffffff021916908373ffffffffffffffffffffffffffffffffffffffff160217905550611d6c6040518060400160405280600c81526020017f6574685f726f707374656e33000000000000000000000000000000000000000081525061317a565b60019050612146565b6000611d9473b7a07bcf2ba2f2703b24c0691b5278999c59ac7e610db2565b1115611e365773b7a07bcf2ba2f2703b24c0691b5278999c59ac7e600160006101000a81548173ffffffffffffffffffffffffffffffffffffffff021916908373ffffffffffffffffffffffffffffffffffffffff160217905550611e2d6040518060400160405280600981526020017f6574685f6b6f76616e000000000000000000000000000000000000000000000081525061317a565b60019050612146565b6000611e5573146500cfd35b22e4a392fe0adc06de1a1368ed48610db2565b1115611ef75773146500cfd35b22e4a392fe0adc06de1a1368ed48600160006101000a81548173ffffffffffffffffffffffffffffffffffffffff021916908373ffffffffffffffffffffffffffffffffffffffff160217905550611eee6040518060400160405280600b81526020017f6574685f72696e6b65627900000000000000000000000000000000000000000081525061317a565b60019050612146565b6000611f1673a2998efd205fb9d4b4963afb70778d6354ad3a41610db2565b1115611fb85773a2998efd205fb9d4b4963afb70778d6354ad3a41600160006101000a81548173ffffffffffffffffffffffffffffffffffffffff021916908373ffffffffffffffffffffffffffffffffffffffff160217905550611faf6040518060400160405280600a81526020017f6574685f676f65726c690000000000000000000000000000000000000000000081525061317a565b60019050612146565b6000611fd7736f485c8bf6fc43ea212e93bbf8ce046c7f1cb475610db2565b111561203b57736f485c8bf6fc43ea212e93bbf8ce046c7f1cb475600160006101000a81548173ffffffffffffffffffffffffffffffffffffffff021916908373ffffffffffffffffffffffffffffffffffffffff16021790555060019050612146565b600061205a7320e12a1f859b3feae5fb2a0a32c18f5a65555bbf610db2565b11156120be577320e12a1f859b3feae5fb2a0a32c18f5a65555bbf600160006101000a81548173ffffffffffffffffffffffffffffffffffffffff021916908373ffffffffffffffffffffffffffffffffffffffff16021790555060019050612146565b60006120dd7351efaf4c8b3c9afbd5ab9f4bbc82784ab6ef8faa610db2565b1115612141577351efaf4c8b3c9afbd5ab9f4bbc82784ab6ef8faa600160006101000a81548173ffffffffffffffffffffffffffffffffffffffff021916908373ffffffffffffffffffffffffffffffffffffffff16021790555060019050612146565b600090505b90565b606060008285019050808451101561216057600080fd5b600086602001905060008460200190505b8688602001018210156121995781890151808288015250602082019150602081019050612171565b85935050505095945050505050565b60008060019050828451146121bc57600080fd5b60008090505b838110156122aa578481815181106121d657fe5b60200101517f010000000000000000000000000000000000000000000000000000000000000090047f0100000000000000000000000000000000000000000000000000000000000000027effffffffffffffffffffffffffffffffffffffffffffffffffffffffffffff191686826020811061224e57fe5b1a7f0100000000000000000000000000000000000000000000000000000000000000027effffffffffffffffffffffffffffffffffffffffffffffffffffffffffffff19161461229d57600091505b80806001019150506121c2565b50809150509392505050565b6000806000806000606060206040519080825280601f01601f1916602001820160405280156122f45781602001600182028038833980820191505090505b509050600060208960038151811061230857fe5b60200101517f010000000000000000000000000000000000000000000000000000000000000090047f0100000000000000000000000000000000000000000000000000000000000000027f0100000000000000000000000000000000000000000000000000000000000000900460ff1603600401905061238d89826020856000612149565b9150606060206040519080825280601f01601f1916602001820160405280156123c55781602001600182028038833980820191505090505b5090506022820191506124608a60208c60018603815181106123e357fe5b60200101517f010000000000000000000000000000000000000000000000000000000000000090047f0100000000000000000000000000000000000000000000000000000000000000027f0100000000000000000000000000000000000000000000000000000000000000900460ff160384016020846000612149565b9050602083015194506020810151935061247d8b601b8787613194565b80975081985050508573ffffffffffffffffffffffffffffffffffffffff1689805190602001206001900473ffffffffffffffffffffffffffffffffffffffff1614156124d457600197505050505050505061252d565b6124e18b601c8787613194565b80975081985050508573ffffffffffffffffffffffffffffffffffffffff1689805190602001206001900473ffffffffffffffffffffffffffffffffffffffff16149750505050505050505b9392505050565b6000806060600285600186018151811061254a57fe5b60200101517f010000000000000000000000000000000000000000000000000000000000000090047f0100000000000000000000000000000000000000000000000000000000000000027f0100000000000000000000000000000000000000000000000000000000000000900460ff16016040519080825280601f01601f1916602001820160405280156125ed5781602001600182028038833980820191505090505b5090506125ff85858351846000612149565b506060604080519080825280601f01601f1916602001820160405280156126355781602001600182028038833980820191505090505b5090506126488660046040846000612149565b50606060626040519080825280601f01601f19166020018201604052801561267f5781602001600182028038833980820191505090505b50905060017f010000000000000000000000000000000000000000000000000000000000000002816000815181106126b357fe5b60200101907effffffffffffffffffffffffffffffffffffffffffffffffffffffffffffff1916908160001a9053506126f487604188036041846001612149565b5060606040518060400160405280602081526020017ffd94fa71bc0ba10d39d464d0d8f465efeef0a2764e3887fcc9df41ded20f505c815250905061273f8160006020856042612149565b506127e86002836040518082805190602001908083835b602083106127795780518252602082019150602081019050602083039250612756565b6001836020036101000a038019825116818451168082178552505050505050905001915050602060405180830381855afa1580156127bb573d6000803e3d6000fd5b5050506040513d60208110156127d057600080fd5b810190808051906020019092919050505085856122b6565b9450846127fd57600095505050505050612a42565b6060604051806060016040528060408152602001613cad604091399050606060426040519080825280601f01601f1916602001820160405280156128505781602001600182028038833980820191505090505b50905060fe7f0100000000000000000000000000000000000000000000000000000000000000028160008151811061288457fe5b60200101907effffffffffffffffffffffffffffffffffffffffffffffffffffffffffffff1916908160001a9053506128c38a60036041846001612149565b50606060028b6045815181106128d557fe5b60200101517f010000000000000000000000000000000000000000000000000000000000000090047f0100000000000000000000000000000000000000000000000000000000000000027f0100000000000000000000000000000000000000000000000000000000000000900460ff16016040519080825280601f01601f1916602001820160405280156129785781602001600182028038833980820191505090505b50905061298b8b60448351846000612149565b50612a346002836040518082805190602001908083835b602083106129c557805182526020820191506020810190506020830392506129a2565b6001836020036101000a038019825116818451168082178552505050505050905001915050602060405180830381855afa158015612a07573d6000803e3d6000fd5b5050506040513d6020811015612a1c57600080fd5b810190808051906020019092919050505082856122b6565b975087985050505050505050505b92915050565b60008073ffffffffffffffffffffffffffffffffffffffff16600160009054906101000a900473ffffffffffffffffffffffffffffffffffffffff1673ffffffffffffffffffffffffffffffffffffffff161480612ad057506000612ace600160009054906101000a900473ffffffffffffffffffffffffffffffffffffffff16610db2565b145b15612ae157612adf6000610dbd565b505b600160009054906101000a900473ffffffffffffffffffffffffffffffffffffffff1673ffffffffffffffffffffffffffffffffffffffff166338cc48316040518163ffffffff167c0100000000000000000000000000000000000000000000000000000000028152600401602060405180830381600087803b158015612b6757600080fd5b505af1158015612b7b573d6000803e3d6000fd5b505050506040513d6020811015612b9157600080fd5b810190808051906020019092919050505073ffffffffffffffffffffffffffffffffffffffff166000809054906101000a900473ffffffffffffffffffffffffffffffffffffffff1673ffffffffffffffffffffffffffffffffffffffff1614612cf657600160009054906101000a900473ffffffffffffffffffffffffffffffffffffffff1673ffffffffffffffffffffffffffffffffffffffff166338cc48316040518163ffffffff167c0100000000000000000000000000000000000000000000000000000000028152600401602060405180830381600087803b158015612c7b57600080fd5b505af1158015612c8f573d6000803e3d6000fd5b505050506040513d6020811015612ca557600080fd5b81019080805190602001909291905050506000806101000a81548173ffffffffffffffffffffffffffffffffffffffff021916908373ffffffffffffffffffffffffffffffffffffffff1602179055505b6000809054906101000a900473ffffffffffffffffffffffffffffffffffffffff1673ffffffffffffffffffffffffffffffffffffffff1663abaa5f3e6040518163ffffffff167c010000000000000000000000000000000000000000000000000000000002815260040160206040518083038186803b158015612d7957600080fd5b505afa158015612d8d573d6000803e3d6000fd5b505050506040513d6020811015612da357600080fd5b8101908080519060200190929190505050905090565b60008073ffffffffffffffffffffffffffffffffffffffff16600160009054906101000a900473ffffffffffffffffffffffffffffffffffffffff1673ffffffffffffffffffffffffffffffffffffffff161480612e4157506000612e3f600160009054906101000a900473ffffffffffffffffffffffffffffffffffffffff16610db2565b145b15612e5257612e506000610dbd565b505b600160009054906101000a900473ffffffffffffffffffffffffffffffffffffffff1673ffffffffffffffffffffffffffffffffffffffff166338cc48316040518163ffffffff167c0100000000000000000000000000000000000000000000000000000000028152600401602060405180830381600087803b158015612ed857600080fd5b505af1158015612eec573d6000803e3d6000fd5b505050506040513d6020811015612f0257600080fd5b810190808051906020019092919050505073ffffffffffffffffffffffffffffffffffffffff166000809054906101000a900473ffffffffffffffffffffffffffffffffffffffff1673ffffffffffffffffffffffffffffffffffffffff161461306757600160009054906101000a900473ffffffffffffffffffffffffffffffffffffffff1673ffffffffffffffffffffffffffffffffffffffff166338cc48316040518163ffffffff167c0100000000000000000000000000000000000000000000000000000000028152600401602060405180830381600087803b158015612fec57600080fd5b505af1158015613000573d6000803e3d6000fd5b505050506040513d602081101561301657600080fd5b81019080805190602001909291905050506000806101000a81548173ffffffffffffffffffffffffffffffffffffffff021916908373ffffffffffffffffffffffffffffffffffffffff1602179055505b6060600460405190808252806020026020018201604052801561309e57816020015b60608152602001906001900390816130895790505b509050836000600481106130ae57fe5b6020020151816000815181106130c057fe5b6020026020010181905250836001600481106130d857fe5b6020020151816001815181106130ea57fe5b60200260200101819052508360026004811061310257fe5b60200201518160028151811061311457fe5b60200260200101819052508360036004811061312c57fe5b60200201518160038151811061313e57fe5b60200260200101819052506131548582856131d8565b9150509392505050565b8060036000848152602001908152602001600020819055505050565b8060029080519060200190613190929190613bed565b5050565b60008060008060405188815287602082015286604082015285606082015260208160808360006001610bb8f192508051915050818193509350505094509492505050565b60008073ffffffffffffffffffffffffffffffffffffffff16600160009054906101000a900473ffffffffffffffffffffffffffffffffffffffff1673ffffffffffffffffffffffffffffffffffffffff1614806132605750600061325e600160009054906101000a900473ffffffffffffffffffffffffffffffffffffffff16610db2565b145b156132715761326f6000610dbd565b505b600160009054906101000a900473ffffffffffffffffffffffffffffffffffffffff1673ffffffffffffffffffffffffffffffffffffffff166338cc48316040518163ffffffff167c0100000000000000000000000000000000000000000000000000000000028152600401602060405180830381600087803b1580156132f757600080fd5b505af115801561330b573d6000803e3d6000fd5b505050506040513d602081101561332157600080fd5b810190808051906020019092919050505073ffffffffffffffffffffffffffffffffffffffff166000809054906101000a900473ffffffffffffffffffffffffffffffffffffffff1673ffffffffffffffffffffffffffffffffffffffff161461348657600160009054906101000a900473ffffffffffffffffffffffffffffffffffffffff1673ffffffffffffffffffffffffffffffffffffffff166338cc48316040518163ffffffff167c0100000000000000000000000000000000000000000000000000000000028152600401602060405180830381600087803b15801561340b57600080fd5b505af115801561341f573d6000803e3d6000fd5b505050506040513d602081101561343557600080fd5b81019080805190602001909291905050506000806101000a81548173ffffffffffffffffffffffffffffffffffffffff021916908373ffffffffffffffffffffffffffffffffffffffff1602179055505b60008060009054906101000a900473ffffffffffffffffffffffffffffffffffffffff1673ffffffffffffffffffffffffffffffffffffffff16632ef3accc86856040518363ffffffff167c01000000000000000000000000000000000000000000000000000000000281526004018080602001838152602001828103825284818151815260200191508051906020019080838360005b8381101561353857808201518184015260208101905061351d565b50505050905090810190601f1680156135655780820380516001836020036101000a031916815260200191505b509350505050602060405180830381600087803b15801561358557600080fd5b505af1158015613599573d6000803e3d6000fd5b505050506040513d60208110156135af57600080fd5b81019080805190602001909291905050509050823a02670de0b6b3a7640000018111156135e35760006001029150506137a4565b60606135ee856137ab565b90506000809054906101000a900473ffffffffffffffffffffffffffffffffffffffff1673ffffffffffffffffffffffffffffffffffffffff1663c55c1cb68360008985896040518663ffffffff167c0100000000000000000000000000000000000000000000000000000000028152600401808581526020018060200180602001848152602001838103835286818151815260200191508051906020019080838360005b838110156136ae578082015181840152602081019050613693565b50505050905090810190601f1680156136db5780820380516001836020036101000a031916815260200191505b50838103825285818151815260200191508051906020019080838360005b838110156137145780820151818401526020810190506136f9565b50505050905090810190601f1680156137415780820380516001836020036101000a031916815260200191505b5096505050505050506020604051808303818588803b15801561376357600080fd5b505af1158015613777573d6000803e3d6000fd5b50505050506040513d602081101561378e57600080fd5b8101908080519060200190929190505050925050505b9392505050565b60606137b561382b565b6137bd613c6d565b6137c981610400613837565b6137d281613881565b60008090505b8351811015613814576138078482815181106137f057fe5b60200260200101518361388f90919063ffffffff16565b80806001019150506137d8565b5061381e816138b4565b8060000151915050919050565b60405180590338823950565b600081905060006020828161384857fe5b0614613861576020818161385857fe5b06602003810190505b808360200181815250506040518084526000815281810160405250505050565b61388c8160046138c2565b50565b61389c82600283516138e6565b6138af8183613a3590919063ffffffff16565b505050565b6138bf8160076138c2565b50565b6138e2601f60058360ff169060020a021783613ae090919063ffffffff16565b5050565b60178111613915576139108160058460ff169060020a0260ff161784613ae090919063ffffffff16565b613a30565b60ff81116139595761393d601860058460ff169060020a021784613ae090919063ffffffff16565b61395381600185613b209092919063ffffffff16565b50613a2f565b61ffff811161399e57613982601960058460ff169060020a021784613ae090919063ffffffff16565b61399881600285613b209092919063ffffffff16565b50613a2e565b63ffffffff81116139e5576139c9601a60058460ff169060020a021784613ae090919063ffffffff16565b6139df81600485613b209092919063ffffffff16565b50613a2d565b67ffffffffffffffff8111613a2c57613a14601b60058460ff169060020a021784613ae090919063ffffffff16565b613a2a81600885613b209092919063ffffffff16565b505b5b5b5b5b505050565b613a3d613c6d565b82602001518360000151518351011115613a6d57613a6c836002613a6686602001518651613b87565b02613ba3565b5b60008060008451905085518051602081830101945086518101825260208701935050505b60208110613ab45781518352602083019250602082019150602081039050613a91565b60006001826020036101000a039050801983511681855116818117865250508694505050505092915050565b81602001516001836000015151011115613b0657613b05826002846020015102613ba3565b5b815180516020818301018381536001820183525050505050565b613b28613c6d565b836020015184600001515183011115613b5657613b55846002613b4f876020015186613b87565b02613ba3565b5b60006001836101000a0390508451805184818301018684198251161781528582018352505050849150509392505050565b600081831115613b9957829050613b9d565b8190505b92915050565b606082600001519050613bb68383613837565b613bc08382613a35565b50505050565b60405180608001604052806004905b6060815260200190600190039081613bd55790505090565b828054600181600116156101000203166002900490600052602060002090601f016020900481019282601f10613c2e57805160ff1916838001178555613c5c565b82800160010185558215613c5c579182015b82811115613c5b578251825591602001919060010190613c40565b5b509050613c699190613c87565b5090565b604051806040016040528060608152602001600081525090565b613ca991905b80821115613ca5576000816000905550600101613c8d565b5090565b9056fe7fb956469c5c9b89840d55b43537e66a98dd4811ea0a27224272c2e5622911e8537a2f8e86a46baec82864e98dd01e9ccc2f8bc5dfc9cbe5a91a290498dd96e4a165627a7a72305820cab5dbe8236a9d3a4472d25848246e93168ea8dc1933a276e06bbf0295e4d1a60029",
  "source": "\n\npragma solidity ^0.5.0;\n\nimport \"./oraclize/oraclizeAPI.sol\";\nimport \"openzeppelin-solidity/contracts/math/SafeMath.sol\";\n\n\n\ncontract Casino is usingOraclize {\n\tusing SafeMath for uint256;\n\n\t\t\n\tenum State { \n\t\t\tAvailable, \n\t\t\tStarted,\n\t\t\tFinished\n\t}\n\n\n\tState public state;\n\tuint256 betValue;\t\n\taddress betOwner; \n\taddress [] playersList;\n\tuint256 totalValue;\n\n\tconstructor () public {\n\t\t//oraclize_setProof(proofType_Ledger);\t\t\n\t}\n\t\n\t\n\tmodifier ifAvailable {\n\t\trequire (state  == State.Available);\n\t\t_;\n\t}\n\t\n\tmodifier ifStarted {\n\t\trequire (state == State.Started);\n\t\t_;\n\t}\n\t\n\tmodifier checkValue (uint value) {\n\t\trequire (value == betValue);\n\t\t_;\n\t}\n\t\n\tmodifier ifFinished {\n\t\trequire (state == State.Finished);\t\n\t\t_;\n\t}\n\tmodifier checkOwner {\n\t\trequire (msg.sender == betOwner);\n\t\t_;\n\t}\n\t\n\n\t\n\tfunction startGame(uint256 value) \n\t\tpublic\n\t\tifAvailable \n\t\tpayable \n\t{\t\n\t\t// require (value <= balanceOf(msg.sender));\n\t\tbetOwner = msg.sender;\n\t\tbetValue = value;\n\t\ttotalValue = totalValue.add(value);\n\t\tplayersList.push(msg.sender);\n\t\t\n\t}\n\n\t\n\tfunction betIn(uint256 value)\n\t\tpublic\t\n\t\tifStarted\n\t\tcheckValue(value)\n\t\tpayable \n\t{\n\t\t// require (value <= balanceOf(msg.sender));\n\t\ttotalValue = totalValue.add(value);\n\t\tplayersList.push(msg.sender);\t\t\n\t}\n\n\t\n\tfunction endGame()\n\t\tpublic \n\t\tifStarted\n\t\tcheckOwner\n\t{\n\t\trequestRandom();\n\t\tstate = State.Finished;\n\t}\t\n\t\n\tfunction generateResults(uint number) \n\t\tinternal\n\t\tifFinished\n\t{\n\t\trequire(number < playersList.length);\n\t\t// uint totalValue = betValue * playersList.length;\n\t\n\t\taddress wonAddress = playersList[number];\n\t\tfor (uint i = 0 ; i < playersList.length ; ++i) {\n\t\t\t// _transfer(playerList[i], wonAddress, betValue);\n\t\t}\n\t\tstate = State.Available;\n\t}\n\t\n\n\t\n\tfunction requestRandom() internal {\n\t\tuint countRandom = 4;\n\t\tuint delay = 0;\n\t\tuint callbackGas = 2000000;\n\t\tbytes32 queryId = oraclize_newRandomDSQuery(delay, countRandom, callbackGas);\n\t}\n\n\n\t// Results from oracle\n\tfunction __callback(\n\t\tbytes32 _queryId,\n\t\tstring memory _result,\n\t\tbytes memory _proof\n\t) public {\n\t\trequire (msg.sender == oraclize_cbAddress());\n\t\trequire (oraclize_randomDS_proofVerify__returnCode(_queryId, _result, _proof) == 0);\n\t\tuint limit = playersList.length;\n\t\tuint result = uint(keccak256(abi.encodePacked(_result))) % limit;\n\t    generateResults(result);\t\n\t}\n\n}\n",
  "sourcePath": "/home/unicss/Desktop/blockchain/ucoin/contracts/Casino.sol",
  "compiler": {
    "name": "solc",
    "version": "0.5.8+commit.23d335f2.Emscripten.clang"
  },
  "schemaVersion": "3.0.6",
  "updatedAt": "2019-05-11T09:51:53.188Z",
  "devdoc": {
    "methods": {}
  },
  "userdoc": {
    "methods": {}
  }
}