{
  "contractName": "GroupEval",
  "abi": [
    {
      "constant": true,
      "inputs": [],
      "name": "ucoin",
      "outputs": [
        {
          "name": "",
          "type": "address"
        }
      ],
      "payable": false,
      "stateMutability": "view",
      "type": "function"
    },
    {
      "inputs": [],
      "payable": false,
      "stateMutability": "nonpayable",
      "type": "constructor"
    },
    {
      "anonymous": false,
      "inputs": [
        {
          "indexed": false,
          "name": "name",
          "type": "string"
        },
        {
          "indexed": false,
          "name": "member",
          "type": "address"
        }
      ],
      "name": "memberRegistered",
      "type": "event"
    },
    {
      "anonymous": false,
      "inputs": [
        {
          "indexed": false,
          "name": "groupID",
          "type": "uint256"
        }
      ],
      "name": "announceGroupID",
      "type": "event"
    },
    {
      "anonymous": false,
      "inputs": [
        {
          "indexed": false,
          "name": "msg",
          "type": "string"
        }
      ],
      "name": "debuggerEvent",
      "type": "event"
    },
    {
      "constant": false,
      "inputs": [
        {
          "name": "UCoinAddress",
          "type": "address"
        }
      ],
      "name": "initUCoinAddress",
      "outputs": [],
      "payable": false,
      "stateMutability": "nonpayable",
      "type": "function"
    },
    {
      "constant": false,
      "inputs": [
        {
          "name": "amount",
          "type": "uint256"
        },
        {
          "name": "name",
          "type": "string"
        }
      ],
      "name": "initEvaluation",
      "outputs": [],
      "payable": false,
      "stateMutability": "nonpayable",
      "type": "function"
    },
    {
      "constant": false,
      "inputs": [
        {
          "name": "groupID",
          "type": "uint256"
        },
        {
          "name": "name",
          "type": "string"
        }
      ],
      "name": "deposit",
      "outputs": [],
      "payable": false,
      "stateMutability": "nonpayable",
      "type": "function"
    },
    {
      "constant": false,
      "inputs": [
        {
          "name": "groupID",
          "type": "uint256"
        }
      ],
      "name": "closeDeposit",
      "outputs": [],
      "payable": false,
      "stateMutability": "nonpayable",
      "type": "function"
    },
    {
      "constant": false,
      "inputs": [
        {
          "name": "groupID",
          "type": "uint256"
        },
        {
          "name": "points",
          "type": "uint256"
        },
        {
          "name": "name",
          "type": "string"
        }
      ],
      "name": "evaluate",
      "outputs": [],
      "payable": false,
      "stateMutability": "nonpayable",
      "type": "function"
    },
    {
      "constant": false,
      "inputs": [
        {
          "name": "groupID",
          "type": "uint256"
        }
      ],
      "name": "endEvaluation",
      "outputs": [],
      "payable": false,
      "stateMutability": "nonpayable",
      "type": "function"
    }
  ],
  "bytecode": "0x60806040526000600255600a60035534801561001a57600080fd5b5033600460006101000a81548173ffffffffffffffffffffffffffffffffffffffff021916908373ffffffffffffffffffffffffffffffffffffffff160217905550611a888061006b6000396000f3fe608060405234801561001057600080fd5b506004361061009a576000357c0100000000000000000000000000000000000000000000000000000000900480637157eb66116100785780637157eb661461015b57806383b24c521461022a578063861fc1e914610258578063f1215d251461031d5761009a565b806305461aca1461009f57806367a7f3ae146100e35780636c5537cf14610111575b600080fd5b6100e1600480360360208110156100b557600080fd5b81019080803573ffffffffffffffffffffffffffffffffffffffff1690602001909291905050506103e2565b005b61010f600480360360208110156100f957600080fd5b810190808035906020019092919050505061049a565b005b610119610741565b604051808273ffffffffffffffffffffffffffffffffffffffff1673ffffffffffffffffffffffffffffffffffffffff16815260200191505060405180910390f35b6102286004803603606081101561017157600080fd5b810190808035906020019092919080359060200190929190803590602001906401000000008111156101a257600080fd5b8201836020820111156101b457600080fd5b803590602001918460018302840111640100000000831117156101d657600080fd5b91908080601f016020809104026020016040519081016040528093929190818152602001838380828437600081840152601f19601f820116905080830192505050505050509192919290505050610766565b005b6102566004803603602081101561024057600080fd5b81019080803590602001909291905050506108f8565b005b61031b6004803603604081101561026e57600080fd5b81019080803590602001909291908035906020019064010000000081111561029557600080fd5b8201836020820111156102a757600080fd5b803590602001918460018302840111640100000000831117156102c957600080fd5b91908080601f016020809104026020016040519081016040528093929190818152602001838380828437600081840152601f19601f820116905080830192505050505050509192919290505050610a34565b005b6103e06004803603604081101561033357600080fd5b81019080803590602001909291908035906020019064010000000081111561035a57600080fd5b82018360208201111561036c57600080fd5b8035906020019184600183028401116401000000008311171561038e57600080fd5b91908080601f016020809104026020016040519081016040528093929190818152602001838380828437600081840152601f19601f820116905080830192505050505050509192919290505050610d89565b005b600460009054906101000a900473ffffffffffffffffffffffffffffffffffffffff1673ffffffffffffffffffffffffffffffffffffffff163373ffffffffffffffffffffffffffffffffffffffff161461043c57600080fd5b806000806101000a81548173ffffffffffffffffffffffffffffffffffffffff021916908373ffffffffffffffffffffffffffffffffffffffff1602179055506001600060146101000a81548160ff02191690831515021790555050565b80600015156001600083815260200190815260200160002060060160009054906101000a900460ff161515146104cf57600080fd5b813373ffffffffffffffffffffffffffffffffffffffff166001600083815260200190815260200160002060000160019054906101000a900473ffffffffffffffffffffffffffffffffffffffff1673ffffffffffffffffffffffffffffffffffffffff161461053e57600080fd5b8260028081111561054b57fe5b6001600083815260200190815260200160002060000160009054906101000a900460ff16600281111561057a57fe5b1461058457600080fd5b600060016000868152602001908152602001600020905060008090505b81600201548110156105ff576105f382600101600083815260200190815260200160002060010160009054906101000a900473ffffffffffffffffffffffffffffffffffffffff168360030154610e8e565b508060010190506105a1565b5060008090505b816002015481101561068e576001600087815260200190815260200160002060010160008281526020019081526020016000206000808201600061064a9190611853565b6001820160006101000a81549073ffffffffffffffffffffffffffffffffffffffff0219169055600282016000905560038201600090555050806001019050610606565b5060016000868152602001908152602001600020600080820160006101000a81549060ff02191690556000820160016101000a81549073ffffffffffffffffffffffffffffffffffffffff021916905560028201600090556003820160009055600482016000905560058201600090556006820160006101000a81549060ff0219169055505060008160000160006101000a81548160ff0219169083600281111561073557fe5b02179055505050505050565b6000809054906101000a900473ffffffffffffffffffffffffffffffffffffffff1681565b82600015156001600083815260200190815260200160002060060160009054906101000a900460ff1615151461079b57600080fd5b836002808111156107a857fe5b6001600083815260200190815260200160002060000160009054906101000a900460ff1660028111156107d757fe5b146107e157600080fd5b600060016000878152602001908152602001600020905060006108048233610f97565b90507fffffffffffffffffffffffffffffffffffffffffffffffffffffffffffffffff81141561083357600080fd5b600082600101600083815260200190815260200160002090508260040154816003015488011061086257600080fd5b600061086e8488611056565b90507fffffffffffffffffffffffffffffffffffffffffffffffffffffffffffffffff81141561089d57600080fd5b6000846001016000838152602001908152602001600020905088836003016000828254019250508190555088816002016000828254019250508190555088856005016000828254019250508190555050505050505050505050565b80600015156001600083815260200190815260200160002060060160009054906101000a900460ff1615151461092d57600080fd5b813373ffffffffffffffffffffffffffffffffffffffff166001600083815260200190815260200160002060000160019054906101000a900473ffffffffffffffffffffffffffffffffffffffff1673ffffffffffffffffffffffffffffffffffffffff161461099c57600080fd5b82600160028111156109aa57fe5b6001600083815260200190815260200160002060000160009054906101000a900460ff1660028111156109d957fe5b146109e357600080fd5b600060016000868152602001908152602001600020905060028160000160006101000a81548160ff02191690836002811115610a1b57fe5b0217905550806002015481600401819055505050505050565b60011515600060149054906101000a900460ff16151514610a5457600080fd5b7fdfe56d47bf4dbace38b5140f0f99080c69e9f02977fd5751d8c5f0a57b656aef60405180806020018281038252600e8152602001807f696e69744576616c756174696f6e00000000000000000000000000000000000081525060200191505060405180910390a16003548211610b16576040517f08c379a000000000000000000000000000000000000000000000000000000000815260040180806020018281038252602f815260200180611a09602f913960400191505060405180910390fd5b81610b2033611168565b1015610b77576040517f08c379a0000000000000000000000000000000000000000000000000000000008152600401808060200182810382526025815260200180611a386025913960400191505060405180910390fd5b6000610b81611266565b9050610b8b61189b565b33816020019073ffffffffffffffffffffffffffffffffffffffff16908173ffffffffffffffffffffffffffffffffffffffff168152505083816060018181525050600181600001906002811115610bdf57fe5b90816002811115610bec57fe5b8152505060018160c0019015159081151581525050806001600084815260200190815260200160002060008201518160000160006101000a81548160ff02191690836002811115610c3957fe5b021790555060208201518160000160016101000a81548173ffffffffffffffffffffffffffffffffffffffff021916908373ffffffffffffffffffffffffffffffffffffffff16021790555060408201518160020155606082015181600301556080820151816004015560a0820151816005015560c08201518160060160006101000a81548160ff021916908315150217905550905050610cda828461127e565b610d4c576040517f08c379a000000000000000000000000000000000000000000000000000000000815260040180806020018281038252601a8152602001807f43616e6e6f7420726567697374657220746865206d656d62657200000000000081525060200191505060405180910390fd5b7f73543177a7a9b927668d7ddde18b5f21eeb0f3ca1fb790ba81691230d5f42ba6826040518082815260200191505060405180910390a150505050565b81600015156001600083815260200190815260200160002060060160009054906101000a900460ff16151514610dbe57600080fd5b823373ffffffffffffffffffffffffffffffffffffffff166001600083815260200190815260200160002060000160019054906101000a900473ffffffffffffffffffffffffffffffffffffffff1673ffffffffffffffffffffffffffffffffffffffff1614610e2d57600080fd5b8360016002811115610e3b57fe5b6001600083815260200190815260200160002060000160009054906101000a900460ff166002811115610e6a57fe5b14610e7457600080fd5b610e7e858561127e565b610e8757600080fd5b5050505050565b60008060009054906101000a900473ffffffffffffffffffffffffffffffffffffffff1673ffffffffffffffffffffffffffffffffffffffff1663a9059cbb84846040518363ffffffff167c0100000000000000000000000000000000000000000000000000000000028152600401808373ffffffffffffffffffffffffffffffffffffffff1673ffffffffffffffffffffffffffffffffffffffff16815260200182815260200192505050602060405180830381600087803b158015610f5457600080fd5b505af1158015610f68573d6000803e3d6000fd5b505050506040513d6020811015610f7e57600080fd5b8101908080519060200190929190505050905092915050565b600080600090505b836002015481101561102b578273ffffffffffffffffffffffffffffffffffffffff1684600101600083815260200190815260200160002060010160009054906101000a900473ffffffffffffffffffffffffffffffffffffffff1673ffffffffffffffffffffffffffffffffffffffff1614156110205780915050611050565b806001019050610f9f565b507fffffffffffffffffffffffffffffffffffffffffffffffffffffffffffffffff90505b92915050565b600080600090505b836002015481101561113d576111248460010160008381526020019081526020016000206000018054600181600116156101000203166002900480601f0160208091040260200160405190810160405280929190818152602001828054600181600116156101000203166002900480156111195780601f106110ee57610100808354040283529160200191611119565b820191906000526020600020905b8154815290600101906020018083116110fc57829003601f168201915b50505050508461165b565b156111325780915050611162565b80600101905061105e565b507fffffffffffffffffffffffffffffffffffffffffffffffffffffffffffffffff90505b92915050565b60008060009054906101000a900473ffffffffffffffffffffffffffffffffffffffff1673ffffffffffffffffffffffffffffffffffffffff166370a08231836040518263ffffffff167c0100000000000000000000000000000000000000000000000000000000028152600401808273ffffffffffffffffffffffffffffffffffffffff1673ffffffffffffffffffffffffffffffffffffffff16815260200191505060206040518083038186803b15801561122457600080fd5b505afa158015611238573d6000803e3d6000fd5b505050506040513d602081101561124e57600080fd5b81019080805190602001909291905050509050919050565b60006002600081548092919060010191905055905090565b6000806001600085815260200190815260200160002090507fdfe56d47bf4dbace38b5140f0f99080c69e9f02977fd5751d8c5f0a57b656aef6040518080602001828103825260128152602001807f696e207265676973746572206d656d626572000000000000000000000000000081525060200191505060405180910390a1806003015461130c33611168565b1015611363576040517f08c379a000000000000000000000000000000000000000000000000000000000815260040180806020018281038252602a8152602001806119df602a913960400191505060405180910390fd5b61137133826003015461174a565b6113e3576040517f08c379a00000000000000000000000000000000000000000000000000000000081526004018080602001828103825260138152602001807f43616e6e6f742072656365697665546f6b656e0000000000000000000000000081525060200191505060405180910390fd5b7fffffffffffffffffffffffffffffffffffffffffffffffffffffffffffffffff61140e8285611056565b14611481576040517f08c379a000000000000000000000000000000000000000000000000000000000815260040180806020018281038252601c8152602001807f4d656d62657220697320616c726561647920726567697374657265640000000081525060200191505060405180910390fd5b6114896118fb565b60405180608001604052808581526020013373ffffffffffffffffffffffffffffffffffffffff16815260200160008152602001600081525090508060016000878152602001908152602001600020600101600084600201548152602001908152602001600020600082015181600001908051906020019061150c929190611939565b5060208201518160010160006101000a81548173ffffffffffffffffffffffffffffffffffffffff021916908373ffffffffffffffffffffffffffffffffffffffff160217905550604082015181600201556060820151816003015590505081600201600081548092919060010191905055507f24b95e040587ef6cec07e692048354eb420a71feaddc46180eaf63e82d6f95ea843360405180806020018373ffffffffffffffffffffffffffffffffffffffff1673ffffffffffffffffffffffffffffffffffffffff168152602001828103825284818151815260200191508051906020019080838360005b838110156116145780820151818401526020810190506115f9565b50505050905090810190601f1680156116415780820380516001836020036101000a031916815260200191505b50935050505060405180910390a160019250505092915050565b6000816040516020018082805190602001908083835b602083106116945780518252602082019150602081019050602083039250611671565b6001836020036101000a03801982511681845116808217855250505050505090500191505060405160208183030381529060405280519060200120836040516020018082805190602001908083835b6020831061170657805182526020820191506020810190506020830392506116e3565b6001836020036101000a0380198251168184511680821785525050505050509050019150506040516020818303038152906040528051906020012014905092915050565b60008060009054906101000a900473ffffffffffffffffffffffffffffffffffffffff1673ffffffffffffffffffffffffffffffffffffffff166397235a1e84846040518363ffffffff167c0100000000000000000000000000000000000000000000000000000000028152600401808373ffffffffffffffffffffffffffffffffffffffff1673ffffffffffffffffffffffffffffffffffffffff16815260200182815260200192505050602060405180830381600087803b15801561181057600080fd5b505af1158015611824573d6000803e3d6000fd5b505050506040513d602081101561183a57600080fd5b8101908080519060200190929190505050905092915050565b50805460018160011615610100020316600290046000825580601f106118795750611898565b601f01602090049060005260206000209081019061189791906119b9565b5b50565b6040518060e00160405280600060028111156118b357fe5b8152602001600073ffffffffffffffffffffffffffffffffffffffff168152602001600081526020016000815260200160008152602001600081526020016000151581525090565b604051806080016040528060608152602001600073ffffffffffffffffffffffffffffffffffffffff16815260200160008152602001600081525090565b828054600181600116156101000203166002900490600052602060002090601f016020900481019282601f1061197a57805160ff19168380011785556119a8565b828001600101855582156119a8579182015b828111156119a757825182559160200191906001019061198c565b5b5090506119b591906119b9565b5090565b6119db91905b808211156119d75760008160009055506001016119bf565b5090565b9056fe42616c616e6365206d7573742062652067726561746572207468616e206465706f736974416d6f756e74526571756972656420616d6f756e74206973206c657373207468616e204d494e5f4445504f5349545f414d4f554e5442616c616e6365206973206c657373207468616e2070726f6d69736564206465706f736974a165627a7a72305820dee952b6f9cb0f9f74864b3792940924ac3e83583e4419886cf53caf10cc3ce70029",
  "source": "import \"openzeppelin-solidity/contracts/math/SafeMath.sol\";\nimport './UCoin.sol';\n\ncontract GroupEval {\n\tusing SafeMath for uint256;\n\n\tUCoin public ucoin;\n\tbool ucoinInit;\n\n\n\tmapping (uint => Group) groupTable;\n\tuint groupIDCounter = 0;\n\tuint256 MIN_DEPOSIT_AMOUNT = 10;\n\taddress creator;\n\t\n\n\tconstructor () public {\n\t\tcreator = msg.sender;\n\t}\n\t\n//\tconstructor(address UCoinAddress) \n//\t\tpublic {\n//\t\tucoin = UCoin(UCoinAddress);\n//\t\tucoinInit = true;\n//\t}\n\n\tmodifier onlyCreator {\n\t\trequire (msg.sender == creator);\n\t\t_;\n\t}\n\n\tfunction initUCoinAddress(address UCoinAddress) \n\t\tonlyCreator \n\t\tpublic {\n\t\tucoin = UCoin(UCoinAddress);\n\t\tucoinInit = true;\n\t}\n\n\tenum State { \n\t\t\tAvailable, \n\t\t\tDeposit,\n\t\t\tEvaluation\n\t}\n\t\t\n\tstruct Member {\n\t\tstring name;\n\t\taddress addr;\n\t\tuint receivedPoints;\n\t\tuint sentPoints;\n\t}\n\n\tstruct Group {\n\t\tState state;\n\t\taddress groupLeader;\n\t\tmapping (uint => Member) memberList;\n\t\tuint memberCurIdx;\n\n\t\tuint256 depositAmount;\n\t\tuint maxPointsToUse;\n\t\tuint totalPoints;\n\t\tbool exists;\n\t}\n\n    function compareStrings (string memory a, string memory b) \n\t   private pure returns (bool) {\n  \t\treturn (keccak256(abi.encodePacked((a))) == keccak256(abi.encodePacked((b))));\n    }\n\t\n\tmodifier ifucoinInit {\n\t\trequire (ucoinInit == true);\n\t\t_;\n\t}\t\n\n\tmodifier ifGroupExists (uint groupID) {\n\t\trequire (groupTable[groupID].exists == false);\n\t\t_;\n\t}\n\tmodifier ifGroupLeader(uint groupID) {\n\t\trequire (groupTable[groupID].groupLeader == msg.sender);\n\t\t_;\n\t}\n\n\n\tmodifier ifDepositState(uint groupID) {\n\t\trequire (groupTable[groupID].state == State.Deposit);\n\t\t_;\n\t}\n\tmodifier ifEvaluationState(uint groupID) {\n\t\trequire (groupTable[groupID].state == State.Evaluation);\n\t\t_;\n\t}\n\n\n\tfunction sendToken(address user, uint256 val) \n\t\tprivate returns (bool) {\n\t\treturn ucoin.transfer(user, val);\n\t}\n\t\n\tfunction receiveToken(address user, uint256 val) \n\t\tprivate returns (bool) {\n\t\treturn ucoin.receiveToken(user, val);\n\t}\n\n\tfunction getBalance(address user) \n\t\tprivate returns (uint256) {\n\t\treturn ucoin.balanceOf(user);\t\n\t}\n\t\n\tevent memberRegistered(string name, address member);\n\tevent announceGroupID(uint groupID);\n\tevent debuggerEvent(string msg);\n\n\n\tfunction registerMember(uint groupID, string memory name) \n\t\tprivate returns (bool) {\n\t\tGroup storage g = groupTable[groupID];\n\t\temit debuggerEvent(\"in register member\");\n\n\t\trequire (getBalance(msg.sender) >= g.depositAmount, \"Balance must be greater than depositAmount\");\n\t\trequire(receiveToken(msg.sender, g.depositAmount), \"Cannot receiveToken\");\n\t\trequire (findStudentName(g, name) == -1, \"Member is already registered\");\n\n\t\tMember memory member = Member(name, msg.sender, 0, 0);\n\t\tgroupTable[groupID].memberList[g.memberCurIdx] = member;\n\t\tg.memberCurIdx ++;\t\t\n\t\n\t\temit memberRegistered(name, msg.sender);\n\t\n\t\treturn true;\n\t}\t\n\n\tfunction generateGroupID () \n\t\tprivate returns (uint) {\n\t\treturn groupIDCounter ++;\n\t}\n\n\tfunction initEvaluation(uint256 amount, string memory name) \n\t\tpublic\n\t\tifucoinInit\n\t{\t\n\t\temit debuggerEvent(\"initEvaluation\");\n\t\trequire(amount > MIN_DEPOSIT_AMOUNT, \"Required amount is less than MIN_DEPOSIT_AMOUNT\");\n\t\trequire (getBalance(msg.sender) >= amount, \"Balance is less than promised deposit\");\n\n\t\tuint groupID = generateGroupID();\n\t\t\t\n\t\tGroup memory g;\n\t\tg.groupLeader = msg.sender;\n\t\tg.depositAmount = amount;\n\t\tg.state = State.Deposit;\n\t\tg.exists = true;\n\t\tgroupTable[groupID] = g;\n\t\t\n\t\trequire(registerMember(groupID, name), \"Cannot register the member\");\t\n\t\t\n\t\temit announceGroupID(groupID);\t\n\t}\n\t\n\t\n\tfunction deposit(uint groupID, string memory name)\n\t\tpublic\t\n\t\tifGroupExists(groupID)\n\t\tifGroupLeader(groupID)\n\t\tifDepositState(groupID)\n\t{\n\t\trequire (registerMember(groupID, name));\t\t\n\t}\n\t\n\n\n\tfunction closeDeposit(uint groupID) \n\t\tpublic \n\t\tifGroupExists(groupID)\n\t\tifGroupLeader(groupID)\n\t\tifDepositState (groupID)\n\t{\n\t\t\n\t\tGroup storage g = groupTable[groupID];\n\t\tg.state = State.Evaluation;\n\t\t// specify the max amount of points that a group member can use\n\t\tg.maxPointsToUse = g.memberCurIdx;\n\t\t// emit signalMaxPoints(g.maxPointsToUse);\n\t}\n\n\n\tfunction findStudentName (Group storage g, string memory name)\n   \t\tprivate\t\n\t\tview\t\n\t\treturns (int) {\n\n\t\tfor (uint i = 0 ; i < g.memberCurIdx ; ++i) {\n\t\t\tif (compareStrings(g.memberList[i].name, name)) { \n\t\t\t\treturn int(i);\n\t\t\t}\t\n\t\t}\n\t\treturn -1;\n\t}\n\n\tfunction findStudentAddress(Group storage g, address addr) \n\t\tprivate\n\t    view\t\n\t\treturns (int) {\n\t\tfor (uint i = 0 ; i < g.memberCurIdx ; ++i) {\n\t\t\tif (g.memberList[i].addr == addr) { \n\t\t\t\treturn int(i);\n\t\t\t}\t\n\t\t}\n\t\treturn -1;\n\t}\n\n\tfunction evaluate(uint groupID, uint points, string memory name) \n\t\tpublic\t\n\t\tifGroupExists(groupID)\n\t\tifEvaluationState(groupID)\n\t{\n\n\t\tGroup storage g = groupTable[groupID];\n\t\t\n\t\t// check if sender is registered to group\n\t\tint pointsSenderIdx = findStudentAddress(g, msg.sender);\t\n\t\trequire(pointsSenderIdx != -1);\t\n\t\tMember storage pointsSender = g.memberList[uint(pointsSenderIdx)];\n\n\t\t// check if the sender of points can sent\n\t\t// requested amount of points\n\t\trequire(points + pointsSender.sentPoints < g.maxPointsToUse);\n\t\t\n\t\t// check if the receiver exists with given name\n\t\tint pointsReceiverIdx = findStudentName(g, name);\n\t\trequire(pointsReceiverIdx != -1);\n\t\tMember storage pointsReceiver = g.memberList[uint(pointsReceiverIdx)];\n\t\t\n\n\t\tpointsSender.sentPoints += points;\n\t\tpointsReceiver.receivedPoints += points;\n\t\tg.totalPoints += points;\n\t} \n\n\n\tfunction endEvaluation(uint groupID)\n\t\tpublic \n\t\tifGroupExists(groupID)\n\t\tifGroupLeader(groupID)\n\t\tifEvaluationState(groupID)\n\t{\n\t\tGroup storage g = groupTable[groupID];\n\t\t\n\t\tfor (uint i = 0 ; i < g.memberCurIdx ; ++i) {\n\t\t\tsendToken(g.memberList[i].addr, g.depositAmount); \n\t\t}\t\n\t\t\n\t\tfor (uint i = 0 ; i < g.memberCurIdx ; ++i) {\n\t\t\tdelete groupTable[groupID].memberList[i];\n\t\t}\t\t\n\t\tdelete groupTable[groupID];\n\t\tg.state = State.Available;\n\t}\t\n}\n\n\n\n\n\n\n\n\n\n",
  "sourcePath": "/home/unicss/Desktop/blockchain/ucoin/contracts/GroupEval.sol",
  "compiler": {
    "name": "solc",
    "version": "0.5.8+commit.23d335f2.Emscripten.clang"
  },
  "schemaVersion": "3.0.9",
  "updatedAt": "2019-05-17T02:59:40.545Z",
  "devdoc": {
    "methods": {}
  },
  "userdoc": {
    "methods": {}
  }
}