{
  "contractName": "GroupEval",
  "abi": [
    {
      "inputs": [],
      "payable": false,
      "stateMutability": "nonpayable",
      "type": "constructor",
      "signature": "constructor"
    },
    {
      "anonymous": false,
      "inputs": [
        {
          "indexed": false,
          "name": "name",
          "type": "string"
        },
        {
          "indexed": false,
          "name": "member",
          "type": "address"
        }
      ],
      "name": "memberRegistered",
      "type": "event",
      "signature": "0x24b95e040587ef6cec07e692048354eb420a71feaddc46180eaf63e82d6f95ea"
    },
    {
      "anonymous": false,
      "inputs": [
        {
          "indexed": false,
          "name": "groupID",
          "type": "uint256"
        }
      ],
      "name": "signalGroupID",
      "type": "event",
      "signature": "0x747f1afa7179a49a329d8aaa8e123766785fe035f4c6309159382a62b8716557"
    },
    {
      "anonymous": false,
      "inputs": [
        {
          "indexed": false,
          "name": "msg",
          "type": "string"
        }
      ],
      "name": "debuggerEvent",
      "type": "event",
      "signature": "0xdfe56d47bf4dbace38b5140f0f99080c69e9f02977fd5751d8c5f0a57b656aef"
    },
    {
      "constant": false,
      "inputs": [
        {
          "name": "amount",
          "type": "uint256"
        },
        {
          "name": "name",
          "type": "string"
        }
      ],
      "name": "initEvaluation",
      "outputs": [],
      "payable": false,
      "stateMutability": "nonpayable",
      "type": "function",
      "signature": "0x861fc1e9"
    },
    {
      "constant": false,
      "inputs": [
        {
          "name": "groupID",
          "type": "uint256"
        },
        {
          "name": "name",
          "type": "string"
        }
      ],
      "name": "deposit",
      "outputs": [],
      "payable": false,
      "stateMutability": "nonpayable",
      "type": "function",
      "signature": "0xf1215d25"
    },
    {
      "constant": false,
      "inputs": [
        {
          "name": "groupID",
          "type": "uint256"
        }
      ],
      "name": "closeDeposit",
      "outputs": [],
      "payable": false,
      "stateMutability": "nonpayable",
      "type": "function",
      "signature": "0x83b24c52"
    },
    {
      "constant": false,
      "inputs": [
        {
          "name": "groupID",
          "type": "uint256"
        },
        {
          "name": "points",
          "type": "uint256"
        },
        {
          "name": "name",
          "type": "string"
        }
      ],
      "name": "evaluate",
      "outputs": [],
      "payable": false,
      "stateMutability": "nonpayable",
      "type": "function",
      "signature": "0x7157eb66"
    },
    {
      "constant": false,
      "inputs": [
        {
          "name": "groupID",
          "type": "uint256"
        }
      ],
      "name": "endEvaluation",
      "outputs": [],
      "payable": false,
      "stateMutability": "nonpayable",
      "type": "function",
      "signature": "0x67a7f3ae"
    }
  ],
  "bytecode": "0x60806040526000600255600a60035534801561001a57600080fd5b506113508061002a6000396000f3fe608060405234801561001057600080fd5b5060043610610074576000357c01000000000000000000000000000000000000000000000000000000009004806367a7f3ae146100795780637157eb66146100a757806383b24c5214610176578063861fc1e9146101a4578063f1215d2514610269575b600080fd5b6100a56004803603602081101561008f57600080fd5b810190808035906020019092919050505061032e565b005b610174600480360360608110156100bd57600080fd5b810190808035906020019092919080359060200190929190803590602001906401000000008111156100ee57600080fd5b82018360208201111561010057600080fd5b8035906020019184600183028401116401000000008311171561012257600080fd5b91908080601f016020809104026020016040519081016040528093929190818152602001838380828437600081840152601f19601f8201169050808301925050505050505091929192905050506105d5565b005b6101a26004803603602081101561018c57600080fd5b8101908080359060200190929190505050610767565b005b610267600480360360408110156101ba57600080fd5b8101908080359060200190929190803590602001906401000000008111156101e157600080fd5b8201836020820111156101f357600080fd5b8035906020019184600183028401116401000000008311171561021557600080fd5b91908080601f016020809104026020016040519081016040528093929190818152602001838380828437600081840152601f19601f8201169050808301925050505050505091929192905050506108a3565b005b61032c6004803603604081101561027f57600080fd5b8101908080359060200190929190803590602001906401000000008111156102a657600080fd5b8201836020820111156102b857600080fd5b803590602001918460018302840111640100000000831117156102da57600080fd5b91908080601f016020809104026020016040519081016040528093929190818152602001838380828437600081840152601f19601f820116905080830192505050505050509192919290505050610ad7565b005b80600015156001600083815260200190815260200160002060060160009054906101000a900460ff1615151461036357600080fd5b813373ffffffffffffffffffffffffffffffffffffffff166001600083815260200190815260200160002060000160019054906101000a900473ffffffffffffffffffffffffffffffffffffffff1673ffffffffffffffffffffffffffffffffffffffff16146103d257600080fd5b826002808111156103df57fe5b6001600083815260200190815260200160002060000160009054906101000a900460ff16600281111561040e57fe5b1461041857600080fd5b600060016000868152602001908152602001600020905060008090505b81600201548110156104935761048782600101600083815260200190815260200160002060010160009054906101000a900473ffffffffffffffffffffffffffffffffffffffff168360030154610bdc565b50806001019050610435565b5060008090505b816002015481101561052257600160008781526020019081526020016000206001016000828152602001908152602001600020600080820160006104de9190611199565b6001820160006101000a81549073ffffffffffffffffffffffffffffffffffffffff021916905560028201600090556003820160009055505080600101905061049a565b5060016000868152602001908152602001600020600080820160006101000a81549060ff02191690556000820160016101000a81549073ffffffffffffffffffffffffffffffffffffffff021916905560028201600090556003820160009055600482016000905560058201600090556006820160006101000a81549060ff0219169055505060008160000160006101000a81548160ff021916908360028111156105c957fe5b02179055505050505050565b82600015156001600083815260200190815260200160002060060160009054906101000a900460ff1615151461060a57600080fd5b8360028081111561061757fe5b6001600083815260200190815260200160002060000160009054906101000a900460ff16600281111561064657fe5b1461065057600080fd5b600060016000878152602001908152602001600020905060006106738233610be8565b90507fffffffffffffffffffffffffffffffffffffffffffffffffffffffffffffffff8114156106a257600080fd5b60008260010160008381526020019081526020016000209050826004015481600301548801106106d157600080fd5b60006106dd8488610ca7565b90507fffffffffffffffffffffffffffffffffffffffffffffffffffffffffffffffff81141561070c57600080fd5b6000846001016000838152602001908152602001600020905088836003016000828254019250508190555088816002016000828254019250508190555088856005016000828254019250508190555050505050505050505050565b80600015156001600083815260200190815260200160002060060160009054906101000a900460ff1615151461079c57600080fd5b813373ffffffffffffffffffffffffffffffffffffffff166001600083815260200190815260200160002060000160019054906101000a900473ffffffffffffffffffffffffffffffffffffffff1673ffffffffffffffffffffffffffffffffffffffff161461080b57600080fd5b826001600281111561081957fe5b6001600083815260200190815260200160002060000160009054906101000a900460ff16600281111561084857fe5b1461085257600080fd5b600060016000868152602001908152602001600020905060028160000160006101000a81548160ff0219169083600281111561088a57fe5b0217905550806002015481600401819055505050505050565b7fdfe56d47bf4dbace38b5140f0f99080c69e9f02977fd5751d8c5f0a57b656aef60405180806020018281038252600e8152602001807f696e69744576616c756174696f6e00000000000000000000000000000000000081525060200191505060405180910390a1600354821161091957600080fd5b8161092333610db9565b101561092e57600080fd5b6000610938610dc7565b90506109426111e1565b33816020019073ffffffffffffffffffffffffffffffffffffffff16908173ffffffffffffffffffffffffffffffffffffffff16815250508381606001818152505060018160000190600281111561099657fe5b908160028111156109a357fe5b8152505060018160c0019015159081151581525050806001600084815260200190815260200160002060008201518160000160006101000a81548160ff021916908360028111156109f057fe5b021790555060208201518160000160016101000a81548173ffffffffffffffffffffffffffffffffffffffff021916908373ffffffffffffffffffffffffffffffffffffffff16021790555060408201518160020155606082015181600301556080820151816004015560a0820151816005015560c08201518160060160006101000a81548160ff021916908315150217905550905050610a918284610ddf565b610a9a57600080fd5b7f747f1afa7179a49a329d8aaa8e123766785fe035f4c6309159382a62b8716557826040518082815260200191505060405180910390a150505050565b81600015156001600083815260200190815260200160002060060160009054906101000a900460ff16151514610b0c57600080fd5b823373ffffffffffffffffffffffffffffffffffffffff166001600083815260200190815260200160002060000160019054906101000a900473ffffffffffffffffffffffffffffffffffffffff1673ffffffffffffffffffffffffffffffffffffffff1614610b7b57600080fd5b8360016002811115610b8957fe5b6001600083815260200190815260200160002060000160009054906101000a900460ff166002811115610bb857fe5b14610bc257600080fd5b610bcc8585610ddf565b610bd557600080fd5b5050505050565b60006001905092915050565b600080600090505b8360020154811015610c7c578273ffffffffffffffffffffffffffffffffffffffff1684600101600083815260200190815260200160002060010160009054906101000a900473ffffffffffffffffffffffffffffffffffffffff1673ffffffffffffffffffffffffffffffffffffffff161415610c715780915050610ca1565b806001019050610bf0565b507fffffffffffffffffffffffffffffffffffffffffffffffffffffffffffffffff90505b92915050565b600080600090505b8360020154811015610d8e57610d758460010160008381526020019081526020016000206000018054600181600116156101000203166002900480601f016020809104026020016040519081016040528092919081815260200182805460018160011615610100020316600290048015610d6a5780601f10610d3f57610100808354040283529160200191610d6a565b820191906000526020600020905b815481529060010190602001808311610d4d57829003601f168201915b50505050508461109e565b15610d835780915050610db3565b806001019050610caf565b507fffffffffffffffffffffffffffffffffffffffffffffffffffffffffffffffff90505b92915050565b6000633b9aca009050919050565b60006002600081548092919060010191905055905090565b6000806001600085815260200190815260200160002090507fdfe56d47bf4dbace38b5140f0f99080c69e9f02977fd5751d8c5f0a57b656aef6040518080602001828103825260128152602001807f696e207265676973746572206d656d626572000000000000000000000000000081525060200191505060405180910390a18060030154610e6d33610db9565b1015610e7857600080fd5b610e8633826003015461118d565b610e8f57600080fd5b7fffffffffffffffffffffffffffffffffffffffffffffffffffffffffffffffff610eba8285610ca7565b14610ec457600080fd5b610ecc611241565b60405180608001604052808581526020013373ffffffffffffffffffffffffffffffffffffffff168152602001600081526020016000815250905080600160008781526020019081526020016000206001016000846002015481526020019081526020016000206000820151816000019080519060200190610f4f92919061127f565b5060208201518160010160006101000a81548173ffffffffffffffffffffffffffffffffffffffff021916908373ffffffffffffffffffffffffffffffffffffffff160217905550604082015181600201556060820151816003015590505081600201600081548092919060010191905055507f24b95e040587ef6cec07e692048354eb420a71feaddc46180eaf63e82d6f95ea843360405180806020018373ffffffffffffffffffffffffffffffffffffffff1673ffffffffffffffffffffffffffffffffffffffff168152602001828103825284818151815260200191508051906020019080838360005b8381101561105757808201518184015260208101905061103c565b50505050905090810190601f1680156110845780820380516001836020036101000a031916815260200191505b50935050505060405180910390a160019250505092915050565b6000816040516020018082805190602001908083835b602083106110d757805182526020820191506020810190506020830392506110b4565b6001836020036101000a03801982511681845116808217855250505050505090500191505060405160208183030381529060405280519060200120836040516020018082805190602001908083835b602083106111495780518252602082019150602081019050602083039250611126565b6001836020036101000a0380198251168184511680821785525050505050509050019150506040516020818303038152906040528051906020012014905092915050565b60006001905092915050565b50805460018160011615610100020316600290046000825580601f106111bf57506111de565b601f0160209004906000526020600020908101906111dd91906112ff565b5b50565b6040518060e00160405280600060028111156111f957fe5b8152602001600073ffffffffffffffffffffffffffffffffffffffff168152602001600081526020016000815260200160008152602001600081526020016000151581525090565b604051806080016040528060608152602001600073ffffffffffffffffffffffffffffffffffffffff16815260200160008152602001600081525090565b828054600181600116156101000203166002900490600052602060002090601f016020900481019282601f106112c057805160ff19168380011785556112ee565b828001600101855582156112ee579182015b828111156112ed5782518255916020019190600101906112d2565b5b5090506112fb91906112ff565b5090565b61132191905b8082111561131d576000816000905550600101611305565b5090565b9056fea165627a7a7230582057c071b06d29ae7df1973f9c7cd71e1d320bfd6429c90ca03c054f4b1f805c160029",
  "source": "\n\npragma solidity ^0.5.0;\n\nimport \"openzeppelin-solidity/contracts/math/SafeMath.sol\";\nimport \"./UCoin.sol\";\n\n\n\ncontract GroupEval {\n\tusing SafeMath for uint256;\n\n\tUCoin ucoin;\n\n\tmapping (uint => Group) groupTable;\n\tuint groupIDCounter = 0;\n\tuint256 MIN_DEPOSIT_AMOUNT = 10;\n\n\tconstructor (/*address ucoinAddress */) public {\n\t\t//ucoin = UCoin(ucoinAddress);\n\t}\n\n\tenum State { \n\t\t\tAvailable, \n\t\t\tDeposit,\n\t\t\tEvaluation\n\t}\n\t\t\n\tstruct Member {\n\t\tstring name;\n\t\taddress addr;\n\t\tuint receivedPoints;\n\t\tuint sentPoints;\n\t}\n\n\tstruct Group {\n\t\tState state;\n\t\taddress groupLeader;\n\t\tmapping (uint => Member) memberList;\n\t\tuint memberCurIdx;\n\n\t\tuint256 depositAmount;\n\t\tuint maxPointsToUse;\n\t\tuint totalPoints;\n\t\tbool exists;\n\t}\n\n    function compareStrings (string memory a, string memory b) \n\t   private pure returns (bool) {\n  \t\treturn (keccak256(abi.encodePacked((a))) == keccak256(abi.encodePacked((b))));\n    }\n\t\t\n\tmodifier ifGroupExists (uint groupID) {\n\t\trequire (groupTable[groupID].exists == false);\n\t\t_;\n\t}\n\tmodifier ifGroupLeader(uint groupID) {\n\t\trequire (groupTable[groupID].groupLeader == msg.sender);\n\t\t_;\n\t}\n\n\n\tmodifier ifDepositState(uint groupID) {\n\t\trequire (groupTable[groupID].state == State.Deposit);\n\t\t_;\n\t}\n\tmodifier ifEvaluationState(uint groupID) {\n\t\trequire (groupTable[groupID].state == State.Evaluation);\n\t\t_;\n\t}\n\n\n\tfunction sendToken(address user, uint256 val) \n\t\tprivate returns (bool) {\n\t\treturn true;\n\t}\n\t\n\tfunction receiveToken(address user, uint256 val) \n\t\tprivate returns (bool) {\n\t\treturn true;\n\t}\n\n\tfunction getBalance(address user) \n\t\tprivate returns (uint256) {\n\t\treturn 1000000000;\t\n\t}\n\t\n\tevent memberRegistered(string name, address member);\n\tevent signalGroupID(uint groupID);\n\tevent debuggerEvent(string msg);\n\n\n\tfunction registerMember(uint groupID, string memory name) \n\t\tprivate returns (bool) {\n\t\tGroup storage g = groupTable[groupID];\n\t\temit debuggerEvent(\"in register member\");\n\n\t\trequire (getBalance(msg.sender) >= g.depositAmount);\n\t\trequire(receiveToken(msg.sender, g.depositAmount));\n\t\trequire (findStudentName(g, name) == -1);\n\n\t\tMember memory member = Member(name, msg.sender, 0, 0);\n\t\tgroupTable[groupID].memberList[g.memberCurIdx] = member;\n\t\tg.memberCurIdx ++;\t\t\n\t\n\t\temit memberRegistered(name, msg.sender);\n\t\n\t\treturn true;\n\t}\t\n\n\tfunction generateGroupID () \n\t\tprivate returns (uint) {\n\t\treturn groupIDCounter ++;\n\t}\n\n\tfunction initEvaluation(uint256 amount, string memory name) \n\t\tpublic\n\t{\t\n\t\temit debuggerEvent(\"initEvaluation\");\n\t\trequire(amount > MIN_DEPOSIT_AMOUNT);\n\t\trequire (getBalance(msg.sender) >= amount);\n\n\t\tuint groupID = generateGroupID();\n\t\t\t\n\t\tGroup memory g;\n\t\tg.groupLeader = msg.sender;\n\t\tg.depositAmount = amount;\n\t\tg.state = State.Deposit;\n\t\tg.exists = true;\n\t\tgroupTable[groupID] = g;\n\t\t\n\t\trequire(registerMember(groupID, name));\t\n\t\t\n\t\temit signalGroupID(groupID);\t\n\t}\n\t\n\t\n\tfunction deposit(uint groupID, string memory name)\n\t\tpublic\t\n\t\tifGroupExists(groupID)\n\t\tifGroupLeader(groupID)\n\t\tifDepositState(groupID)\n\t{\n\t\trequire (registerMember(groupID, name));\t\t\n\t}\n\t\n\n\n\tfunction closeDeposit(uint groupID) \n\t\tpublic \n\t\tifGroupExists(groupID)\n\t\tifGroupLeader(groupID)\n\t\tifDepositState (groupID)\n\t{\n\t\t\n\t\tGroup storage g = groupTable[groupID];\n\t\tg.state = State.Evaluation;\n\t\t// specify the max amount of points that a group member can use\n\t\tg.maxPointsToUse = g.memberCurIdx;\n\t\t// emit signalMaxPoints(g.maxPointsToUse);\n\t}\n\n\n\tfunction findStudentName (Group storage g, string memory name)\n   \t\tprivate\t\t\n\t\treturns (int) {\n\n\t\tfor (uint i = 0 ; i < g.memberCurIdx ; ++i) {\n\t\t\tif (compareStrings(g.memberList[i].name, name)) { \n\t\t\t\treturn int(i);\n\t\t\t}\t\n\t\t}\n\t\treturn -1;\n\t}\n\n\tfunction findStudentAddress(Group storage g, address addr) \n\t\tprivate \n\t\treturns (int) {\n\t\tfor (uint i = 0 ; i < g.memberCurIdx ; ++i) {\n\t\t\tif (g.memberList[i].addr == addr) { \n\t\t\t\treturn int(i);\n\t\t\t}\t\n\t\t}\n\t\treturn -1;\n\t}\n\n\tfunction evaluate(uint groupID, uint points, string memory name) \n\t\tpublic\t\n\t\tifGroupExists(groupID)\n\t\tifEvaluationState(groupID)\n\t{\n\n\t\tGroup storage g = groupTable[groupID];\n\t\t\n\t\t// check if sender is registered to group\n\t\tint pointsSenderIdx = findStudentAddress(g, msg.sender);\t\n\t\trequire(pointsSenderIdx != -1);\t\n\t\tMember storage pointsSender = g.memberList[uint(pointsSenderIdx)];\n\n\t\t// check if the sender of points can sent\n\t\t// requested amount of points\n\t\trequire(points + pointsSender.sentPoints < g.maxPointsToUse);\n\t\t\n\t\t// check if the receiver exists with given name\n\t\tint pointsReceiverIdx = findStudentName(g, name);\n\t\trequire(pointsReceiverIdx != -1);\n\t\tMember storage pointsReceiver = g.memberList[uint(pointsReceiverIdx)];\n\t\t\n\n\t\tpointsSender.sentPoints += points;\n\t\tpointsReceiver.receivedPoints += points;\n\t\tg.totalPoints += points;\n\t} \n\n\n\tfunction endEvaluation(uint groupID)\n\t\tpublic \n\t\tifGroupExists(groupID)\n\t\tifGroupLeader(groupID)\n\t\tifEvaluationState(groupID)\n\t{\n\t\tGroup storage g = groupTable[groupID];\n\t\t\n\t\tfor (uint i = 0 ; i < g.memberCurIdx ; ++i) {\n\t\t\tsendToken(g.memberList[i].addr, g.depositAmount); \n\t\t}\t\n\t\t\n\t\tfor (uint i = 0 ; i < g.memberCurIdx ; ++i) {\n\t\t\tdelete groupTable[groupID].memberList[i];\n\t\t}\t\t\n\t\tdelete groupTable[groupID];\n\t\tg.state = State.Available;\n\t}\t\n}\n\n\n\n\n\n\n\n\n\n\n\n\n\n\n\n\n\n\n\n\n\n\n\n\n\n\n\n\n\n\n\n\n\n\n\n\n\n\n\n\n\n",
  "sourcePath": "/home/unicss/Desktop/blockchain/ucoin/contracts/GroupEval.sol",
  "compiler": {
    "name": "solc",
    "version": "0.5.8+commit.23d335f2.Emscripten.clang"
  },
  "schemaVersion": "3.0.6",
  "updatedAt": "2019-05-11T15:01:27.978Z",
  "devdoc": {
    "methods": {}
  },
  "userdoc": {
    "methods": {}
  }
}