{
  "contractName": "Lottery",
  "abi": [
    {
      "constant": true,
      "inputs": [
        {
          "name": "_myid",
          "type": "bytes32"
        },
        {
          "name": "_result",
          "type": "string"
        }
      ],
      "name": "ucoin",
      "outputs": [
        {
          "name": "",
          "type": "address"
        }
      ],
      "payable": false,
      "stateMutability": "view",
      "type": "function"
    },
    {
      "inputs": [
        {
          "name": "_myid",
          "type": "bytes32"
        },
        {
          "name": "_result",
          "type": "string"
        },
        {
          "name": "_proof",
          "type": "bytes"
        }
      ],
      "payable": false,
      "stateMutability": "nonpayable",
      "type": "constructor",
      "constant": false,
      "name": "__callback",
      "outputs": []
    },
    {
      "anonymous": false,
      "inputs": [
        {
          "indexed": false,
          "name": "player",
          "type": "address"
        }
      ],
      "name": "playerRegistered",
      "type": "event",
      "constant": true,
      "outputs": [
        {
          "name": "",
          "type": "address"
        }
      ],
      "payable": false,
      "stateMutability": "view"
    },
    {
      "anonymous": false,
      "inputs": [
        {
          "indexed": false,
          "name": "gameID",
          "type": "uint256"
        }
      ],
      "name": "announceGameID",
      "type": "event",
      "payable": false,
      "stateMutability": "nonpayable"
    },
    {
      "anonymous": false,
      "inputs": [
        {
          "indexed": false,
          "name": "msg",
          "type": "string"
        }
      ],
      "name": "debuggerEvent",
      "type": "event"
    },
    {
      "constant": false,
      "inputs": [
        {
          "name": "UCoinAddress",
          "type": "address",
          "indexed": false
        }
      ],
      "name": "initUCoinAddress",
      "outputs": [],
      "payable": false,
      "stateMutability": "nonpayable",
      "type": "function",
      "anonymous": false
    },
    {
      "constant": false,
      "inputs": [
        {
          "name": "amount",
          "type": "uint256",
          "indexed": false
        }
      ],
      "name": "initGame",
      "outputs": [],
      "payable": false,
      "stateMutability": "nonpayable",
      "type": "function",
      "anonymous": false
    },
    {
      "constant": false,
      "inputs": [
        {
          "name": "gameID",
          "type": "uint256"
        }
      ],
      "name": "deposit",
      "outputs": [],
      "payable": false,
      "stateMutability": "nonpayable",
      "type": "function"
    },
    {
      "constant": false,
      "inputs": [
        {
          "name": "gameID",
          "type": "uint256"
        }
      ],
      "name": "endGame",
      "outputs": [],
      "payable": false,
      "stateMutability": "nonpayable",
      "type": "function"
    },
    {
      "constant": false,
      "inputs": [
        {
          "name": "gameID",
          "type": "uint256"
        },
        {
          "name": "_result",
          "type": "string"
        }
      ],
      "name": "deposit",
      "outputs": [],
      "payable": false,
      "stateMutability": "nonpayable",
      "type": "function"
    },
    {
      "constant": false,
      "inputs": [
        {
          "name": "gameID",
          "type": "uint256"
        },
        {
          "name": "_result",
          "type": "string"
        },
        {
          "name": "_proof",
          "type": "bytes"
        }
      ],
      "name": "endGame",
      "outputs": [],
      "payable": false,
      "stateMutability": "nonpayable",
      "type": "function"
    }
  ],
  "bytecode": "0x60806040526103e8600355600a600455600060065534801561002057600080fd5b5033600560006101000a81548173ffffffffffffffffffffffffffffffffffffffff021916908373ffffffffffffffffffffffffffffffffffffffff160217905550610ef1806100716000396000f3fe608060405234801561001057600080fd5b50600436106100575760003560e01c806305461aca1461005c5780636c5537cf146100a0578063b6b55f25146100ea578063c869ce6414610118578063d0399bb814610146575b600080fd5b61009e6004803603602081101561007257600080fd5b81019080803573ffffffffffffffffffffffffffffffffffffffff169060200190929190505050610174565b005b6100a861022c565b604051808273ffffffffffffffffffffffffffffffffffffffff1673ffffffffffffffffffffffffffffffffffffffff16815260200191505060405180910390f35b6101166004803603602081101561010057600080fd5b8101908080359060200190929190505050610251565b005b6101446004803603602081101561012e57600080fd5b81019080803590602001909291905050506102fc565b005b6101726004803603602081101561015c57600080fd5b81019080803590602001909291905050506105e6565b005b600560009054906101000a900473ffffffffffffffffffffffffffffffffffffffff1673ffffffffffffffffffffffffffffffffffffffff163373ffffffffffffffffffffffffffffffffffffffff16146101ce57600080fd5b806000806101000a81548173ffffffffffffffffffffffffffffffffffffffff021916908373ffffffffffffffffffffffffffffffffffffffff1602179055506001600060146101000a81548160ff02191690831515021790555050565b6000809054906101000a900473ffffffffffffffffffffffffffffffffffffffff1681565b80600115156001600083815260200190815260200160002060040160009054906101000a900460ff161515146102ef576040517f08c379a000000000000000000000000000000000000000000000000000000000815260040180806020018281038252601b8152602001807f476976656e2067726f7570494420646f65736e2774206578697374000000000081525060200191505060405180910390fd5b6102f882610893565b5050565b60011515600060149054906101000a900460ff16151514610385576040517f08c379a00000000000000000000000000000000000000000000000000000000081526004018080602001828103825260188152602001807f55436f696e206973206e6f7420696e697469616c697a6564000000000000000081525060200191505060405180910390fd5b7fdfe56d47bf4dbace38b5140f0f99080c69e9f02977fd5751d8c5f0a57b656aef6040518080602001828103825260118152602001807f496e697469616c697a696e672047616d6500000000000000000000000000000081525060200191505060405180910390a16004548111610447576040517f08c379a000000000000000000000000000000000000000000000000000000000815260040180806020018281038252602f815260200180610e50602f913960400191505060405180910390fd5b8061045133610a11565b10156104a8576040517f08c379a0000000000000000000000000000000000000000000000000000000008152600401808060200182810382526025815260200180610e7f6025913960400191505060405180910390fd5b60006104b2610af3565b90506104bc610de5565b33816000019073ffffffffffffffffffffffffffffffffffffffff16908173ffffffffffffffffffffffffffffffffffffffff1681525050828160400181815250506001816060019015159081151581525050806001600084815260200190815260200160002060008201518160000160006101000a81548173ffffffffffffffffffffffffffffffffffffffff021916908373ffffffffffffffffffffffffffffffffffffffff160217905550602082015181600201556040820151816003015560608201518160040160006101000a81548160ff0219169083151502179055509050506105aa82610893565b7f99de88969f8fb40ed459a3202305659aa48d7adc1c68d2c0c7ff3943e003bfd0826040518082815260200191505060405180910390a1505050565b80600115156001600083815260200190815260200160002060040160009054906101000a900460ff16151514610684576040517f08c379a000000000000000000000000000000000000000000000000000000000815260040180806020018281038252601b8152602001807f476976656e2067726f7570494420646f65736e2774206578697374000000000081525060200191505060405180910390fd5b813373ffffffffffffffffffffffffffffffffffffffff166001600083815260200190815260200160002060000160009054906101000a900473ffffffffffffffffffffffffffffffffffffffff1673ffffffffffffffffffffffffffffffffffffffff161461073f576040517f08c379a0000000000000000000000000000000000000000000000000000000008152600401808060200182810382526022815260200180610ea46022913960400191505060405180910390fd5b6000600160008581526020019081526020016000209050600061076182610b0b565b9050600061078083600201548460030154610bd190919063ffffffff16565b90506107c183600101600084815260200190815260200160002060009054906101000a900473ffffffffffffffffffffffffffffffffffffffff1682610c0b565b5060008090505b83600201548110156108295760016000888152602001908152602001600020600101600082815260200190815260200160002060006101000a81549073ffffffffffffffffffffffffffffffffffffffff02191690558060010190506107c8565b5060016000878152602001908152602001600020600080820160006101000a81549073ffffffffffffffffffffffffffffffffffffffff0219169055600282016000905560038201600090556004820160006101000a81549060ff02191690555050505050505050565b600060016000838152602001908152602001600020905080600301546108b833610a11565b101561090f576040517f08c379a000000000000000000000000000000000000000000000000000000000815260040180806020018281038252602a815260200180610e26602a913960400191505060405180910390fd5b61091d338260030154610cf8565b61098f576040517f08c379a00000000000000000000000000000000000000000000000000000000081526004018080602001828103825260138152602001807f43616e6e6f742072656365697665546f6b656e0000000000000000000000000081525060200191505060405180910390fd5b336001600084815260200190815260200160002060010160008360020154815260200190815260200160002060006101000a81548173ffffffffffffffffffffffffffffffffffffffff021916908373ffffffffffffffffffffffffffffffffffffffff16021790555080600201600081548092919060010191905055505050565b60008060009054906101000a900473ffffffffffffffffffffffffffffffffffffffff1673ffffffffffffffffffffffffffffffffffffffff166370a08231836040518263ffffffff1660e01b8152600401808273ffffffffffffffffffffffffffffffffffffffff1673ffffffffffffffffffffffffffffffffffffffff16815260200191505060206040518083038186803b158015610ab157600080fd5b505afa158015610ac5573d6000803e3d6000fd5b505050506040513d6020811015610adb57600080fd5b81019080805190602001909291905050509050919050565b60006003600081548092919060010191905055905090565b60008160010160006001846002015403815260200190815260200160002060009054906101000a900473ffffffffffffffffffffffffffffffffffffffff1660065442604051602001808473ffffffffffffffffffffffffffffffffffffffff1673ffffffffffffffffffffffffffffffffffffffff1660601b815260140183815260200182815260200193505050506040516020818303038152906040528051906020012060001c600681905550816002015460065481610bc957fe5b069050919050565b600080831415610be45760009050610c05565b6000828402905082848281610bf557fe5b0414610c0057600080fd5b809150505b92915050565b60008060009054906101000a900473ffffffffffffffffffffffffffffffffffffffff1673ffffffffffffffffffffffffffffffffffffffff1663a9059cbb84846040518363ffffffff1660e01b8152600401808373ffffffffffffffffffffffffffffffffffffffff1673ffffffffffffffffffffffffffffffffffffffff16815260200182815260200192505050602060405180830381600087803b158015610cb557600080fd5b505af1158015610cc9573d6000803e3d6000fd5b505050506040513d6020811015610cdf57600080fd5b8101908080519060200190929190505050905092915050565b60008060009054906101000a900473ffffffffffffffffffffffffffffffffffffffff1673ffffffffffffffffffffffffffffffffffffffff166397235a1e84846040518363ffffffff1660e01b8152600401808373ffffffffffffffffffffffffffffffffffffffff1673ffffffffffffffffffffffffffffffffffffffff16815260200182815260200192505050602060405180830381600087803b158015610da257600080fd5b505af1158015610db6573d6000803e3d6000fd5b505050506040513d6020811015610dcc57600080fd5b8101908080519060200190929190505050905092915050565b6040518060800160405280600073ffffffffffffffffffffffffffffffffffffffff1681526020016000815260200160008152602001600015158152509056fe42616c616e6365206d7573742062652067726561746572207468616e206465706f736974416d6f756e74526571756972656420616d6f756e74206973206c657373207468616e204d494e5f4445504f5349545f414d4f554e5442616c616e6365206973206c657373207468616e2070726f6d69736564206465706f73697453656e646572206d7573742062652061206c6561646572206f6620612067726f7570a165627a7a7230582097fc93a7f63c6eee688eeb44bfad8a4b368700614416c98d09aaef3f1e038c490029",
  "source": "import \"openzeppelin-solidity/contracts/math/SafeMath.sol\";\n//import \"./oraclizeAPI.sol\";\nimport './UCoin.sol';\n\ncontract Lottery {\n\tusing SafeMath for uint256;\n\n\tUCoin public ucoin;\n\tbool ucoinInit;\n\n\n\tmapping (uint => Game) gameTable;\n\tmapping (bytes32 => uint) queryToGame;\n\n\tuint gameIDCounter = 1000;\n\tuint256 MIN_DEPOSIT_AMOUNT = 10;\n\taddress creator;\n\n\n\tconstructor () public {\n\t\tcreator = msg.sender;\n\t\t//OAR = OraclizeAddrResolverI(0x6f485C8BF6fc43eA212E93BBF8ce046C7f1cb475);\n\n\t\t//oraclize_setProof(proofType_Ledger);\n\t}\n\t\n\tmodifier onlyCreator {\n\t\trequire (msg.sender == creator);\n\t\t_;\n\t}\n\n\tfunction initUCoinAddress(address UCoinAddress) \n\t\tonlyCreator \n\t\tpublic {\n\t\tucoin = UCoin(UCoinAddress);\n\t\tucoinInit = true;\n\t}\n\t\t\n\tstruct Game {\n\t\taddress gameLeader;\n\t\tmapping (uint => address) playerList;\n\t\tuint playerCurIdx;\n\n\t\tuint256 depositAmount;\n\t\tbool exists;\n\t}\n\n\t\n\tmodifier ifucoinInit {\n\t\trequire (ucoinInit == true, \"UCoin is not initialized\");\n\t\t_;\n\t}\t\n\n\tmodifier ifGameExists (uint gameID) {\n\t\trequire (gameTable[gameID].exists == true, \"Given groupID doesn't exist\");\n\t\t_;\n\t}\n\tmodifier ifGameLeader(uint gameID) {\n\t\trequire (gameTable[gameID].gameLeader == msg.sender, \"Sender must be a leader of a group\");\n\t\t_;\n\t}\n\n\n\tfunction sendToken(address user, uint256 val) \n\t\tprivate returns (bool) {\n\t\treturn ucoin.transfer(user, val);\n\t}\n\t\n\tfunction receiveToken(address user, uint256 val) \n\t\tprivate returns (bool) {\n\t\treturn ucoin.receiveToken(user, val);\n\t}\n\n\tfunction getBalance(address user) \n\t\tprivate returns (uint256) {\n\t\treturn ucoin.balanceOf(user);\t\n\t}\n\t\n\tevent playerRegistered(address player);\n\tevent announceGameID(uint gameID);\n\tevent debuggerEvent(string msg);\n\n\n\tfunction registerPlayer(uint gameID) \n\t\tprivate {\n\t\tGame storage g = gameTable[gameID];\n\n\t\trequire (getBalance(msg.sender) >= g.depositAmount, \"Balance must be greater than depositAmount\");\n\t\trequire(receiveToken(msg.sender, g.depositAmount), \"Cannot receiveToken\");\n\n\t\tgameTable[gameID].playerList[g.playerCurIdx] = msg.sender;\n\t\tg.playerCurIdx ++;\t\t\n\t}\t\n\n\tfunction generateGameID () \n\t\tprivate returns (uint) {\n\t\treturn gameIDCounter ++;\n\t}\n\n\tfunction initGame(uint256 amount) \n\t\tpublic\n\t\tifucoinInit\n\t{\t\n\t\temit debuggerEvent(\"Initializing Game\");\n\t\trequire(amount > MIN_DEPOSIT_AMOUNT, \"Required amount is less than MIN_DEPOSIT_AMOUNT\");\n\t\trequire (getBalance(msg.sender) >= amount, \"Balance is less than promised deposit\");\n\n\t\tuint gameID = generateGameID();\n\t\t\t\n\t\tGame memory g;\n\t\tg.gameLeader = msg.sender;\n\t\tg.depositAmount = amount;\n\t\tg.exists = true;\n\t\tgameTable[gameID] = g;\n\t\tregisterPlayer(gameID);\t\n\n\t\temit announceGameID(gameID);\t\n\t}\n\t\n\t\n\tfunction deposit(uint gameID)\n\t\tpublic\t\n\t\tifGameExists(gameID)\n\t{\n\t\tregisterPlayer(gameID);\t\t\n\t}\n   \n\tuint seed = 0;\n\tfunction random(Game storage g) internal returns (uint) {\n    \tseed = uint(keccak256(abi.encodePacked(g.playerList[g.playerCurIdx - 1], seed, now)));\n    \treturn seed % g.playerCurIdx;\n    }\n\n\tfunction endGame(uint gameID)\n\t\tpublic \n\t\tifGameExists(gameID)\n\t\tifGameLeader(gameID)\n\t{\n\t\tGame storage g = gameTable[gameID];\n\n    \tuint randomNumber = random(g);\n\t\t\t\t\t\t\t\n\t\tuint256 amountToSend = g.depositAmount.mul(g.playerCurIdx);\n\t\t\n\t\tsendToken(g.playerList[randomNumber], amountToSend);\n\n\t\tfor (uint i = 0 ; i < g.playerCurIdx ; ++i) {\n\t\t\tdelete gameTable[gameID].playerList[i];\n\t\t}\t\t\n\t\tdelete gameTable[gameID];\n\t\n\t}\n\n\t\n    /*\n\tfunction endGame(uint gameID)\n\t \tpublic \n\t \tifGameExists(gameID)\n\t\tifGameLeader(gameID)\n\t\n\t{\n\t\tGame storage g = gameTable[gameID];\n\n\t\tuint N = 7; \n        uint delay = 0; \n        uint callbackGas = 200000; \n        bytes32 queryId = oraclize_newRandomDSQuery(delay, N, callbackGas);\n\t\t\n\t\tqueryToGame[queryId] = gameID;\n\t\tgameTable[gameID].exists = false;\n\n\t}\n\n\t\n\tfunction __callback(\n        bytes32 _queryId,\n        string memory _result,\n        bytes memory _proof\n    )\n        public\n    {\n        require(msg.sender == oraclize_cbAddress());\n        require(oraclize_randomDS_proofVerify__returnCode(_queryId, _result, _proof) == 0);\n       \trequire(queryToGame[_queryId] >= 1000);\n\t\t\t\t\n\t\tuint gameID = queryToGame[_queryId];\n\t\t\n\t\tGame storage g = gameTable[gameID];\n\n\t\tuint maxRange = g.playerCurIdx;\n       \tuint randomNumber = uint(keccak256(abi.encodePacked(_result))) % maxRange;\n\t\t\n\t\tuint256 amountToSend = g.depositAmount.mul(g.playerCurIdx);\n\t\tsendToken(g.playerList[randomNumber], amountToSend);\n\n\t\tfor (uint i = 0 ; i < g.playerCurIdx ; ++i) {\n\t\t\tdelete gameTable[gameID].playerList[i];\n\t\t}\t\t\n\t\tdelete gameTable[gameID];\n\t}\t\n\t*/\n}\n\n\n\n\n\n\n\n\n\n",
  "sourcePath": "/home/unicss/Desktop/blockchain/ucoin/contracts/Lottery.sol",
  "compiler": {
    "name": "solc",
    "version": "0.5.8+commit.23d335f2.Emscripten.clang"
  },
  "schemaVersion": "3.0.9",
  "updatedAt": "2019-05-26T17:19:56.954Z",
  "devdoc": {
    "methods": {}
  },
  "userdoc": {
    "methods": {}
  }
}